:020000040800F2
:1080000040140020F98200084DD3000865C900081B
:1080100035D300089186000861F0000800000000D8
:1080200000000000000000000000000059E6000809
:10803000118F000800000000A9D3000875E70008B0
:108040001583000815830008158300080000000050
:108050001583000815830008158300080000000040
:108060001583000815830008000000001583000830
:108070001583000815830008158F00080000000014
:10808000000000001D8F00081583000815830008FC
:108090001583000815830008158300081583000860
:1080A0001583000815830008158300081583000850
:1080B0001583000815830008158300081583000840
:1080C0001583000815830008158300081583000830
:1080D00000000000158300081583000815830008C0
:1080E0001583000815830008E5E8000815830008DB
:1080F00015830008F1E8000815830008000000005F
:10810000000000001583000815830008158300088F
:1081100015830008158300081583000815830008DF
:1081200015830008158300081583000815830008CF
:1081300015830008000000000000000015830008FF
:10814000158300080000000000000000000000008F
:10815000000000000000000015830008000000007F
:1081600000000000000000001583000815830008CF
:1081700000000000000000000000000000000000FF
:1081800000000000000000000000000000000000EF
:1081900000000000000000000000000000000000DF
:1081A000000000000000000015830008158300088F
:1081B000158300081583000815830008158300083F
:1081C000158300081583000800000000000000006F
:1081D00000000000000000000000000015830008FF
:1081E00015830008000000000000000000000000EF
:1081F000000000000000000000000000000000007F
:10820000000000001583000815830008000000002E
:1082100000000000158300080000000000000000BE
:1082200000000000000000000000000015830008AE
:10823000158300080000000000000000000000009E
:10824000000000000000000000000000158300088E
:10825000158300081583000800F002F800F03CF8D0
:108260000AA090E8000C82448344AAF10107DA4591
:1082700001D100F031F8AFF2090EBAE80F0013F0A7
:10828000010F18BFFB1A43F001031847489600007E
:1082900068960000103A24BF78C878C1FAD852070F
:1082A00024BF30C830C144BF04680C607047000070
:1082B0000023002400250026103A28BF78C1FBD8EF
:1082C000520728BF30C148BF0B6070471FB509F087
:1082D00045FA1FBD10B510BD00F09FF91146FFF71C
:1082E000F5FF07F0BFFB00F0BDF903B4FFF7F2FFA5
:1082F00003BC00F0C5F900000A4880470A4800475F
:10830000FEE7FEE7FEE7FEE7FEE7FEE7FEE7FEE745
:10831000FEE7FEE7FEE7000004480549054A064B74
:10832000704700003DE8000859820008400E002018
:1083300040140020401000204010002053EA020C9E
:1083400000F069802DE9F04B4FF00006002B1FBFB5
:10835000B3FA83F503FA05F424FA05F65E4012BF7A
:108360001643B2FA82F502FA05F4C5F120051EBFE4
:1083700022FA05FC44EA0C04203556EA044C4FEA84
:10838000144418BF641C4FF000084FF000099042DD
:1083900071EB030C39D3002919BFB1FA81F701FA47
:1083A00007F6B0FA80F700FA07F6C7F120071EBFFC
:1083B00020FA07FC46EA0C062037B6FBF4FCA7EBD4
:1083C0000507103F07F01F0BCBF120062CFA06F62D
:1083D0000CFA0BFB44BFB3460026202FA4BF5E4619
:1083E0004FF0000B5BEA060C08BF4FF0010B19EBD6
:1083F0000B0948EB0608ABFB027C06FB02CC0BFB2F
:1084000003CCC01B71EB0C01C1E70B460246414691
:108410004846BDE8F08B13B5084318BF4FF0FF3056
:108420000146AFF30080BDE81C40704740EA0103FD
:1084300010B59B070FD1042A0DD310C808C9121F0D
:108440009C42F8D020BA19BA884201D9012010BD47
:108450004FF0FF3010BD1AB1D30703D0521C07E014
:10846000002010BD10F8013B11F8014B1B1B07D178
:1084700010F8013B11F8014B1B1B01D1921EF1D1E9
:10848000184610BD032A40F2308010F0030C00F0B3
:10849000158011F8013BBCF1020F624498BF11F83E
:1084A00001CB00F8013B38BF11F8013BA2F10402F7
:1084B00098BF00F801CB38BF00F8013B11F003036F
:1084C00000F07980083AC0F0088051F8043B083A7F
:1084D00051F804CBA0E80810F5E7121D5CBF51F875
:1084E000043B40F8043BAFF30080D20724BF11F8EF
:1084F000013B11F801CB48BF11F8012B24BF00F854
:10850000013B00F801CB48BF00F8012B704702F097
:10851000FF0343EA032242EA024200F024B84FF08C
:1085200000020429C0F0128010F0030C00F01B8040
:10853000CCF1040CBCF1020F18BF00F8012BA8BF4E
:1085400020F8022BA1EB0C0100F00DB85FEAC17C12
:1085500024BF00F8012B00F8012B48BF00F8012BC5
:1085600070474FF0000200B51346944696462039F6
:1085700022BFA0E80C50A0E80C50B1F12001BFF4DC
:10858000F7AF090728BFA0E80C5048BF0CC05DF842
:1085900004EB890028BF40F8042B08BF704748BF90
:1085A00020F8022B11F0804F18BF00F8012B704704
:1085B00070477047704710B5203AC0F00B80B1E8A3
:1085C0001850A0E81850B1E81850A0E81850203A08
:1085D000BFF4F5AF5FEA027C24BFB1E81850A0E811
:1085E000185044BF18C918C0BDE810405FEA827C2B
:1085F00024BF51F8043B40F8043B08BF7047D20742
:1086000028BF31F8023B48BF11F8012B28BF20F8E2
:10861000023B48BF00F8012B7047754600F02CF86C
:10862000AE4605006946534620F00700854618B05F
:1086300020B5FFF771FEBDE820404FF000064FF077
:1086400000074FF000084FF0000BAC46ACE8C00943
:10865000ACE8C009ACE8C009ACE8C00921F00701EA
:108660008D46704710B50446AFF300802046BDE844
:108670001040FFF73ABE000000487047B0000020ED
:1086800001491820ABBEFEE726000200704700003B
:1086900040F20044C4F202242046202101F062F896
:1086A000642000F0F1FDF7E710B502293CD3A1F1F9
:1086B000010C002100220023415C013259404FFA95
:1086C00081FE4C00CEF3C21364B283EA4101C4F3CD
:1086D000C2134C0083EA410163B24C00C3F3C213DE
:1086E00064B283EA4101C4F3C2134C0083EA41013E
:1086F00063B24C00C3F3C21364B283EA4101C4F312
:10870000C2134C0083EA410163B24C00C3F3C213AD
:1087100064B283EA4101C4F3C21383EA4103D1B2D4
:108720008C45C9DCD8B210BD0023D8B210BD000002
:1087300070B54EF20000C0F60100017840F25424FA
:10874000C2F200042170417861708178A170C17813
:10875000E17001792171417961718179A171C179EA
:10876000E171017A2172417A6172817AA172C17AD2
:10877000E172017B2173417B6173817BA173C17BBA
:10878000E173017C2174417C6174817CA174C17CA2
:10879000E174017D2175417D6175817DA175C17D8A
:1087A000E175017E2176417E6176817EA176C17E72
:1087B000E176017F2177417F6177817FA177C17F5A
:1087C000E17790F8201084F8201090F8211084F8B8
:1087D000211090F8221084F8221090F8231084F8C9
:1087E000231090F8241084F8241090F8251084F8B1
:1087F000251090F8260084F82600012000F044FDA2
:1088000020462721FFF750FF21780546252904D16E
:1088100094F82600A84208BF70BD40F20046C4F29A
:10882000022600BF30462021002200F0A3FF3220A4
:1088300000F02AFD30462021012200F09BFF4FF47A
:10884000FA7000F021FD217894F826002529E9D15D
:10885000A842E7D170BD00002DE9F04186B04CF28E
:108860000004C0F60104217840F20005C2F20005C0
:1088700029706078EA296870A278AA70E278EA70B4
:1088800022792A7162796A71A279AA71E279EA7110
:10889000227A2A72627A6A7231D1013068700020BD
:1088A000019000F04BFE0420029002200390012072
:1088B00005900620049002A801A900F0F9FC00F040
:1088C0008BFD322000F0E0FCD5E90067B5F80880A8
:1088D00000F034FE4FF0FF30CDF81200ADF8160076
:1088E00002AA02202146CDE90267ADF8108000F00F
:1088F00081FD002874D000F06FFD687841E0002011
:10890000019000F01BFE0420029002200390012041
:1089100005900620049002A801A900F0C9FC00F00F
:108920005BFD322000F0B0FCD5E90367B5F8148098
:1089300000F004FE4FF0FF30CDF81200ADF8160045
:1089400002AA02202146CDE90267ADF8108000F0AE
:1089500051FD002858D000F03FFD20782870607845
:108960006870A178A970E178E9702179297161793D
:108970006971A179A971E179E971217A2972617A24
:1089800069720A38022851D94FF4FA7000F07CFC61
:108990004FF00008CDF8048000F0D0FD0425022639
:1089A0000127062402A801A90295039605970494BD
:1089B00000F07EFC00F010FD0A2000F065FCCDF810
:1089C000048000F0BBFD02A801A9CDE90256CDE963
:1089D000044700F06DFC00F0FFFC06B0BDE8F0813C
:1089E00042F22000C4F202000168C9071CBF0168FE
:1089F0005FEAC1713FF47FAF0168C9073FF47BAF05
:108A00000168C907F0D176E742F22000C4F2020003
:108A10000168C9071CBF01685FEAC1719BD001688A
:108A2000C90798D00168C907F2D194E7072000F080
:108A3000C7FA062000F0C4FA40F20044C4F202244F
:108A400020462021002200F095FE204680210022B1
:108A500000F090FE4FF4967000F016FC20462021A6
:108A6000012200F087FE20468021012200F082FED4
:108A70004FF4967000F008FC20462021002200F000
:108A800079FE20468021002200F074FE4FF496709B
:108A900000F0FAFB20462021012200F06BFE204668
:108AA0008021012200F066FE4FF4967000F0ECFB8E
:108AB00020462021002200F05DFE20468021002279
:108AC00000F058FE4FF4967000F0DEFB20462021A7
:108AD000012200F04FFE20468021012200F04AFED4
:108AE0004FF4967000F0D0FB20462021002200F0C9
:108AF00041FE20468021002200F03CFE4FF496709B
:108B000000F0C2FB20462021012200F033FE204667
:108B10008021012200F02EFE4FF4967000F0B4FB8D
:108B200020462021002200F025FE20468021002240
:108B300000F020FE4FF4967000F0A6FB20462021A6
:108B4000012200F017FE20468021012200F012FED3
:108B50004FF4967000F098FB062000F031FA06F012
:108B6000B7FB00002DE9F04182B04FF44A7006F0E7
:108B7000CFFA222840F00381012006F0CFFDC2B2D7
:108B8000002A00F0578140F2841740F23811C2F2F7
:108B90000007C2F20001786A09684FF47A73496AE3
:108BA0000C2A28BF0C2200FB031007F10E063863C5
:108BB00007F1380107F128030120009607F0D0FAE9
:108BC00000200026391891F8385091F839306E405D
:108BD00075B2740091F83A20C5F3C21564B285EA03
:108BE0004606C4F3C215740085EA460665B27400F1
:108BF000C5F3C21564B285EA4606C4F3C215740013
:108C000085EA460665B27400C5F3C21564B285EA0A
:108C10004606C4F3C215740085EA460665B27400C0
:108C2000C5F3C21564B285EA4606C4F3C215082826
:108C300085EA460683EA06035EB24FEA4305C6F3B9
:108C4000C2166DB286EA4303C5F3C2164FEA430566
:108C500086EA43036EB24FEA4305C6F3C2166DB20D
:108C600086EA4303C5F3C2164FEA430586EA430387
:108C70006EB24FEA4305C6F3C2166DB286EA4303ED
:108C8000C5F3C2164FEA430586EA43036EB24FEAC4
:108C90004305C6F3C2166DB286EA4303C5F3C21696
:108CA00086EA430382EA030253B24FEA4206C3F361
:108CB000C21376B283EA4202C6F3C2134FEA4206F7
:108CC00083EA420273B24FEA4206C3F3C21376B29A
:108CD00083EA4202C6F3C2134FEA420683EA420223
:108CE00073B24FEA4206C3F3C21376B283EA42027A
:108CF000C6F3C2134FEA420683EA420273B24FEA56
:108D00004206C3F3C21376B283EA4202C6F3C21329
:108D100083EA420238D091F83B10043051404AB205
:108D20004B00C2F3C2125BB282EA4101C3F3C2122A
:108D30004B0082EA41015AB24B00C2F3C2125BB24D
:108D400082EA4101C3F3C2124B0082EA41015AB2E6
:108D50004B00C2F3C2125BB282EA4101C3F3C212FA
:108D60004B0082EA41015AB24B00C2F3C2125BB21D
:108D700082EA4101C3F3C21282EA410622E70024DB
:108D8000204602B0BDE8F08197F84300D1B281429D
:108D900055D197F8382097F83900AB2A08BFCD286D
:108DA0005BD097F83A100024FE2AFC6203D1ED282C
:108DB00008BFDC2959D040F25422C2F20002D27E10
:108DC0003AB140EA012000281CBF4AF6CD31884262
:108DD00061D1B86B3C4644F8440F40F2EC1554E9BD
:108DE0000201C2F200052E7FC4E90101002004F84F
:108DF000420C2846002103F0BFFF05F13400214654
:108E00000C224FF47A7304F095F9C0B3286EB98B35
:108E100001302866012038713872481C81B2002464
:108E20000A29B8832CD3788B47F23051884227D354
:108E300006F060FA0024204602B0BDE8F081002070
:108E4000C7E90E0038644FF0EE30E224C7E91400A1
:108E5000B865204602B0BDE8F0810120F871787154
:108E60000024204602B0BDE8F08197F83B20CB2AD1
:108E7000A1D197F83C20BA2A3FF482AF9BE7E124C6
:108E80000120B8702846314603F076FFEE61204697
:108E900002B0BDE8F0814FF6FF71884299D0797A2F
:108EA00040F27C2CC2F2000C41B3C1F1000E0CF177
:108EB0000606A1F10108002436F8062C82423FF490
:108EC00088AFA04518D00CEB4402538883423FF48E
:108ED00080AF0EEB04039D1C0ED0928882423FF4BB
:108EE00078AFDA1C08D0328882423FF472AF043483
:108EF000A14206F10806DFD10B4600E000232CF862
:108F00001300481CC1B2643918BF0146797260E78A
:108F100070470000082000F02BBB0000402000F04C
:108F200027BB000072B600BFFEE7000070B542F23A
:108F300020060446C4F2020600F022FC316811F05B
:108F40000B0F20D0BCB30546601C11D1306810F067
:108F50000B0F18D0306810F00B0F14D0306810F0E1
:108F60000B0F10D0306810F00B0FEFD10BE000BFEB
:108F700000F006FC401BA04284BF032070BD306897
:108F800010F00B0FF4D1306810F41E0009D040F23D
:108F90009001C2F200014A6802434A603061012038
:108FA00070BD3068C0035CBF002070BD4FF48030DE
:108FB0003061002070BD00F0E3FB032070BD0000B5
:108FC00010B586B004460020019000F0B7FA0420E6
:108FD0000290022003900120CDE9044002A801A9DB
:108FE00000F066F9044600F0F7F9204606B010BD1F
:108FF000F0B581B040F28416C2F20006F17840F27A
:1090000000440546C4F2022499B1204620210022E2
:10901000002700F0AFFB308A013081B23082B1EB23
:10902000450F06D320462021012200F0A3FB378202
:10903000F770307990B1204640210022002700F0DF
:1090400099FB708A013081B27082A94206D3204612
:109050004021012200F08EFB778237717079A0B138
:10906000204680210022002700F084FBB08A05EB17
:109070008502013081B2B0828A4206D82046802122
:10908000012200F077FBB7827771B079A0B120465A
:109090004FF480710022002700F06CFBF08A013051
:1090A00081B2F082A94207D320464FF48071012299
:1090B00000F060FBF782B77101B0F0BD02780A7072
:1090C00042784A7082788A70C278CA7002790A71CE
:1090D00042794A7182798A71C279CA71027A0A72B6
:1090E000427A4A72827A8A72C27ACA72027B0A739E
:1090F000427B4A73827B8A73C27BCA73027C0A7486
:10910000427C4A74827C8A74C27CCA74027D0A756D
:10911000427D4A75827D8A75C27DCA75027E0A7655
:10912000427E4A76827E8A76C27ECA76027F0A773D
:10913000427F4A77827F8A77C27FCA7790F8202061
:1091400081F8202090F8212081F8212090F8222019
:1091500081F8222090F8232081F8232090F8242001
:1091600081F8242090F8252081F8252090F8260009
:1091700081F82600704700002DE9F0418EB080464E
:10918000DDE919C0DDE9176E14AFB0CF8DE8BE0080
:10919000CDE9066EADF82400000CCDF820C08DF8A6
:1091A000260000F0CBF99DE80F000DF1280C8CE8AB
:1091B0000F000AAA0220414600F01CF930B1012438
:1091C00000F00AF920460EB0BDE8F08142F2200519
:1091D000C4F202052868C0071CBF28685FEAC07097
:1091E00005D02868C00702D02868C007F2D1079AC6
:1091F00004AB0BCB0D920AAA0BC208F110010AAA0C
:10920000022000F0F7F818BB06E000BF2868C0078E
:1092100009D02868C00706D02868C0071CBF286886
:109220005FEAC070F2D14FF0FF308DF83700CDF813
:109230003300CDF82F000898DDF823100A90CDF800
:109240002B1008F120010AAA022000F0D3F830B157
:10925000012400F0C1F820460EB0BDE8F0810024E2
:109260002868C00709D02868C00706D02868C0074A
:1092700003D02868C007F3D1A2E7002400F0ACF8BF
:1092800020460EB0BDE8F081B0B5044600F078FA93
:10929000054640F24C00C2F200000078611C18BF85
:1092A000044400BF00F06CFA401BA042FAD3B0BDEA
:1092B0002DE9F04F81B040F2900BC2F2000B9BF809
:1092C0000020012A02BF022001B0BDE8F08F044651
:1092D00001208BF8000000264FF47A708946CBF805
:1092E0000460FFF723FE20B18BF8006001B0BDE8F9
:1092F000F08F206848F2080220F0004142F228076F
:109300009142C4F20207CBF8080007D1606800F070
:109310000301032936D148F2200042E04FF0FF302C
:10932000C9F80000D4E902502844854241D24FF6E2
:10933000D77A4EF23F08C7F6FF7AAE01C7F6FF783C
:109340006068414610F00100386808BF6FF4FE51B4
:109350004FF0240200EA01003860386808BF0AF1C3
:109360004D023043104338604FF47A70FFF7DEFD52
:1093700008BBD4E902010135403608448542DFD3F9
:1093800000201AE0C1074FF6D771C7F6FF7104D06D
:109390003A680A4042F028023A60800704D501F199
:1093A00051003968084338604FF47A70FFF7BEFD0A
:1093B00004E0002002E0C9F80050002621684FF0C8
:1093C00000423B6862EA0101194039608BF8006095
:1093D00001B0BDE8F08F000042F22800C4F20200A4
:1093E000016841F0010101600068012121EA0000EB
:1093F000704700002DE9F04381B040F29009C2F2BD
:109400000009154699F80020012A02BF022001B088
:10941000BDE8F0838046012089F80000002042F278
:1094200020040E46C4F20204C9F8040000F0A8F9B2
:10943000216811F00B0F0BD0074600BF00F0A0F918
:10944000C01BB0F57A7F14D8206810F00B0FF5D14F
:10945000206810F41E0013D0D9F804100143C9F895
:10946000041020610120002189F8001001B0BDE83E
:10947000F0830320002189F8001001B0BDE8F083DB
:109480002068C00344BF4FF48030206128F00040C2
:109490000228C9F8088017D1A06840F00200A06037
:1094A000EFF3108072B62968316069687160A9684D
:1094B000B160E968F16080F3108800F061F921681B
:1094C00011F00B0F0CD117E0A06840F00200A06073
:1094D0002888308000F054F9216811F00B0F0BD070
:1094E000054600BF00F04CF9401BB0F57A7F0FD85D
:1094F000206810F00B0FF5D1206810F41E0009D081
:10950000D9F804100143C9F804102061012008E0D3
:10951000032006E02068C00344BF4FF48030206180
:1095200000204FF02041A26861EA08011140A160CB
:10953000002189F8001001B0BDE8F08342F2040078
:10954000C4F20200416AC90704BF0020704740F21C
:109550002311C4F26751016048F6AB11CCF6EF510C
:109560000160406A00F00100704700007047000091
:10957000B0B542F20C05C4F2024529680446014226
:1095800003D020462C6000F00BF86868204208BF2A
:10959000B0BD20466C60BDE8B040FFF7E7BF0000FB
:1095A00040F2EC11C2F20001898A814218BF704773
:1095B00040F28410C2F20000018B013101838178F6
:1095C00000291CBF01214170704700002DE9F04FB8
:1095D00082B00C68002C00F0C28047F67F72C0F2A7
:1095E0002F0202EA90224FF0010900920022002689
:1095F0000027012501900FE0BCF1030F5FD100BFF0
:109600000C68083734FA05F305F1010506F1020686
:1096100002F1040200F0A380A5F1010A09FA0AFE92
:1096200014EA0E0BECD0D1F804C04CF01004122C4C
:109630001FD16FF0030303EA5A0402F01C0300EB8E
:109640000409D9F820C05846D1F810B00F2404FA04
:1096500003F80BF00F042CEA080C04FA03F343EAB6
:109660000C0383460198C9F82030D1F804C04FF0AC
:10967000010903680324B4406FEA0408A3430CF013
:109680000304B4402343BCF1120F036017D809FA56
:109690000CF313F0061FAFD08368CC6803EA08030D
:1096A000B4402343836043684FEA1C1423EA0E034B
:1096B00004FA0AF42343BCF1030F4360A0D0C3684B
:1096C0008C6803EA0803B44023435FEACC04C36018
:1096D00096D542F200082AF00303C4F2024808EBD0
:1096E000030EDEF860C007F018040F23A3402CEA35
:1096F000030C009B03FA04F44CEA0403CEF8603038
:10970000D8F800C0D1F804E04CEA0B035FEACE249D
:1097100058BF2CEA0B03C8F80030D8F804C05FEA41
:109720008E234CEA0B0458BF2CEA0B04C8F8044003
:10973000D8F884C05FEA8E334CEA0B0458BF2CEA99
:109740000B04C8F88440D8F880C05FEACE334CEAF6
:109750000B0458BF2CEA0B04C8F8804050E702B055
:10976000BDE8F08F426902EA0103914341EA0341F7
:10977000816170471823002A08BF2823C150704711
:1097800040F63860C2F200000068704740F20041C5
:10979000C4F20301086840F0010200200A6070472B
:1097A00040F24C0040F63861C2F20000C2F2000103
:1097B00000780A68104408607047000080B50320F4
:1097C00000F0BAF801F032FB40F62041C4F2024149
:1097D000096841F2C87201F00F01C0F60102515C44
:1097E000C84040F26001C2F200010860042002F0AB
:1097F0004BFB0F2000F008F800281CBF012080BDA3
:1098000000F05CF8002080BD70B540F24C06C2F25A
:109810000006317800293FD004464EF21000CEF207
:109820000000006840070FD402F086FB02281AD01F
:10983000012825D090BB40F26000C2F20000006811
:1098400031784FF4FA5206E040F26000C2F20000B4
:1098500000684FF47A72B2FBF1F1B0FBF1F002F064
:1098600059FBC8B91FE030784FF47A71B1FBF0F0C2
:109870004FF40041B1FBF0F002F04CFB60B912E094
:1098800030784FF47A71B1FBF0F04FF4FA41B1FB4C
:10989000F0F002F03FFB30B1012070BD002002F07B
:1098A00039FB0028F8D14FF0FF3021460022002577
:1098B00000F016F82846746070BD00007047000084
:1098C000002848BF704700F01F01012202FA01F191
:1098D0004EF200124009CEF2000242F8201070470A
:1098E00010B54EF60C5CCEF2000CDCF80030C3F381
:1098F000022E8EF00704042C28BF0424BEF10303BB
:109900004FF0FF3E38BF00230EFA04F4A143994004
:109910000EFA03F39A4300F00F03043B1143634430
:1099200009010C3300F16042B0F1FF3FC8BF02F5FE
:109930006443197010BD00004EF60C51CEF20001C8
:109940000A684FF6FF031A4060F30A2242F0806073
:1099500040F0FD700860704710B540F6284CC4F226
:10996000024CDCF80CE0DCF80010DCF80030C3F34B
:109970000523DCF80020DCF8104002F01002C4F3EC
:10998000CC0404FB02F200EE102AB8EE400A8BB3BE
:1099900001F0030103296FF35F2E30D0022933D089
:1099A00001295CF8281C49F20002C1F3C101C0F290
:1099B000D03222FA01F101EE101A02EE103AB8EE9E
:1099C000411AB8EE422A9FED4D3A81EE021A02EE9C
:1099D00010EA20EE030AB8EE422A30EE020AB7EE91
:1099E000002A30EE022A5CF8281C22EE010A8901C6
:1099F0002AD525E00021C0E90011816010BD01EEEB
:109A0000103A9FED3D2A03E001EE103A9FED3C2A0B
:109A1000B8EE411A82EE012A01EE10EA9FED373AC4
:109A2000B8EE411A20EE030A30EE010AB7EE001A32
:109A300030EE011A5CF8281C22EE010A890103D5D8
:109A4000DCF80010C90306D4002101605CF8281C72
:109A5000890117D41AE0DCF80C10B7EE002AC1F324
:109A6000462101EE101AB8EE411A31EE021A80EECC
:109A7000011ABCEEC11A11EE101A01605CF8281C24
:109A8000890103D5DCF80010890301D4002111E01D
:109A9000DCF80C10B7EE002AC1F3064101EE101AF3
:109AA000B8EE411A31EE021A80EE011ABCEEC11A6C
:109AB00011EE101A41605CF8281C890144BFDCF8E3
:109AC00000105FEA413102D40021816010BDDCF852
:109AD0000C10B7EE002AC1F3066101EE101AB8EEC1
:109AE000411A31EE021A80EE010ABCEEC00A10EEF5
:109AF000101A816010BD00BF0024F44A0000003934
:109B00000024744A10B540F62C4CC4F2024CDCF828
:109B100010E0DCF80010DCF80030C3F30523DCF8BB
:109B20000020DCF8144002F01002C4F3CC0404FB63
:109B300002F200EE102AB8EE400A8BB301F00301E6
:109B400003296FF35F2E30D0022933D001295CF84E
:109B50002C1C49F20002C1F3C101C0F2D03222FA3A
:109B600001F101EE101A02EE103AB8EE411AB8EE09
:109B7000422A9FED4D3A81EE021A02EE10EA20EEE3
:109B8000030AB8EE422A30EE020AB7EE002A30EE9F
:109B9000022A5CF82C1C22EE010A09012AD525E0D4
:109BA0000021C0E90011816010BD01EE103A9FED67
:109BB0003D2A03E001EE103A9FED3C2AB8EE411A2F
:109BC00082EE012A01EE10EA9FED373AB8EE411A13
:109BD00020EE030A30EE010AB7EE001A30EE011A49
:109BE0005CF82C1C22EE010A090103D5DCF80010F8
:109BF000C90306D4002101605CF82C1C090117D4AC
:109C00001AE0DCF81010B7EE002AC1F3462101EE8D
:109C1000101AB8EE411A31EE021A80EE011ABCEEAB
:109C2000C11A11EE101A01605CF82C1C090103D551
:109C3000DCF80010890301D4002111E0DCF81010D9
:109C4000B7EE002AC1F3064101EE101AB8EE411A30
:109C500031EE021A80EE011ABCEEC11A11EE101A92
:109C600041605CF82C1C090144BFDCF800105FEA7D
:109C7000413102D40021816010BDDCF81010B7EE34
:109C8000002AC1F3066101EE101AB8EE411A31EE56
:109C9000021A80EE010ABCEEC00A10EE101A8160B2
:109CA00010BD00BF0024F44A000000390024744AAB
:109CB00080B584B04FF6FF730246C0F21F03002048
:109CC0009B1A70EB010347DA6FF060439B1A70EB4D
:109CD0000103C0F286806FF07C439B1A4FF00003B3
:109CE0008B4180F2D78082F080630B4300F090813B
:109CF00082F000630B4300F0A08182F08052114398
:109D000040F0A48240F60041C4F20241D1F8E000E4
:109D1000C0F3C202042A00F2C08248F20000C0F27E
:109D2000BB00DFE812F0C9028D02BA0293020500FF
:109D3000D1F8E8000B6810F04042086803D113F036
:109D4000020340F02D83B2F1804F40F0518310F4B4
:109D5000007040F047834BE341F6FF739B1A70EBB2
:109D6000010363DA4FF6FF739B1A4FF000038B4138
:109D700080F2D28082F480330B4300F0888182F439
:109D800000330B4300F09F8182F48022114340F0A6
:109D90005D8240F60041C4F20241D1F8DC00C0F31C
:109DA00002320020052A00F25182DFE812F06C0234
:109DB00049024F029B02A3020600D1F8E8000B689B
:109DC00010F04042086803D113F0020340F0E8822B
:109DD000B2F1804F40F00C8310F4007040F0028329
:109DE00006E30F2940F3C78081F01003134300F00E
:109DF000828181F40073134300F09B8181F48051D0
:109E0000114340F0238240F60041C4F20241D1F8F0
:109E1000E40000F04060B0F1806F00F0F8810028AD
:109E200000F065810A68B0F1006F42E1D2F10303EE
:109E30004FF000038B41C0F2BD8082F001030B4361
:109E400000F08B8182F00202114340F0FF8140F666
:109E50000040C4F20240D0F8D81011F0380100F0F0
:109E600012820268082903D112F0006240F01882C1
:109E700003680268182903D113F0020340F000823E
:109E8000202903D112F4007240F0AC82D0F8F00027
:109E9000282999E282F400130B4300F0818182F0BB
:109EA0000072114340F0D28140F60041C4F20241F9
:109EB000D1F8F000D1F8F02000F44070B0F5807FC8
:109EC00003D112F0020240F04481D1F8F020B0F545
:109ED000007F06D112F000621EBF4FF4FA4004B0BA
:109EE00080BD0A68B0F5407F4FF0000040F0AE81C1
:109EF00012F4003200F0AA81C86910F4785F00F013
:109F0000CC81C86941F20021C0F30520C0F27A017A
:109F1000B1FBF0F004B080BD82F400530B4300F0BD
:109F2000538182F48042114340F0908140F600401A
:109F3000C4F20240D0F8E41001F44021B1F5802FC2
:109F400000F06581002900F09E8102680068B1F58B
:109F5000002F03D112F0020240F0228210F40070B0
:109F60001CBF40F60010C0F23D00B1F5402F18BFF5
:109F7000002004B080BD82F000530B4300F04D81FF
:109F800081F00401114340F0618140F60041C4F2C8
:109F90000241D1F8E800096810F4407040F0778180
:109FA00011F4003100F0738141F20020C0F27A0018
:109FB00004B080BD82F004030B4300F0498182F4B9
:109FC0008052114340F0428140F60040C4F202400A
:109FD000D0F8E01001F0E061B1F1807F00F0608125
:109FE000002900F0848003680268B1F1407F03D14A
:109FF00013F0020340F04481B1F1806F03D112F4F9
:10A00000007240F0EF81D0F8F000B1F1A06FDBE119
:10A0100040F60040C4F20240D0F8E810026811F0A7
:10A02000300140F0438112F4005200F03F8146F6C7
:10A030000040C0F2DC2004B080BD40F60041C4F214
:10A040000241D1F8E00000F00702042A00F2258165
:10A0500048F20000C0F2BB00DFE812F02E01F2006F
:10A060001F01F8000500D1F8E8000B6810F040422D
:10A07000086803D113F0020340F09281B2F1804FDF
:10A0800040F0B68110F4007040F0AC81B0E140F6D1
:10A090000041C4F20241D1F8E40000F04070B0F198
:10A0A000807F00F0B480002800F0ED800A68B0F1F5
:10A0B000007F4FF0000040F0C98012F0020200F073
:10A0C000C58008686CE140F60041C4F20241D1F855
:10A0D000DC00C0F302220020052A00F2B780DFE88E
:10A0E00012F00600AF00B50001010901550100F0B2
:10A0F00079FE04B080BD40F60040C4F20240D0F8C2
:10A10000E41001F03001102900F0D6800268202907
:10A1100003D112F0006240F0C380006810F40050D8
:10A120001CBF46F60040C0F2DC20302918BF0020DA
:10A130008CE040F60040C4F20240D0F8E810D0F8BD
:10A14000F02011F0080140F0BD8012F0020200F092
:10A15000B9804FF4004004B080BD40F60040C4F226
:10A160000240D0F8D81011F0070100F0B780026863
:10A17000012903D112F0006240F092800368026866
:10A18000032903D113F0020340F07A80042903D19C
:10A1900012F4007240F02681D0F8F000052913E196
:10A1A00040F60040C4F20240D0F8E81001F0070188
:10A1B00002292CD0012900F0A680002940F0A780B8
:10A1C00000F0B0FD04B080BD40F60040C4F2024093
:10A1D000D0F8E41001F44031B1F5803F17D00029E8
:10A1E00051D002680068B1F5003F03D112F00202BD
:10A1F00040F0D68010F400701CBF40F60010C0F292
:10A200003D00B1F5403F18BF002004B080BD01A85B
:10A21000FFF778FC039804B080BD40F60041C4F21B
:10A220000241D1F8E000C0F38212042A35D848F286
:10A230000000C0F2BB00DFE802F03F0330099800E5
:10A2400001A8FFF75FFC019804B080BD04B080BD99
:10A2500040F60040C4F20240D0F8D81011F4E0718A
:10A2600011D00268402902D112F0006218D10368AF
:10A270000268C02940F09E8013F0020300F09A802B
:10A28000C2F3C1008EE000F065FD04B080BDB0F502
:10A29000007F05D0B0F5807F0ED0002004B080BDD7
:10A2A00001A8FFF72FFC029804B080BD02681029B6
:10A2B00047D112F0007244D001A8FFF74DFB02987D
:10A2C00004B080BDD0F8F00010F0006018BF4FF46B
:10A2D000FA40002908BF084604B080BD00F05EFDCA
:10A2E00004B080BDD1F8F0004FF4004101EA8030A5
:10A2F00004B080BDD1F8F0004FF4FA41000101EA4A
:10A30000E07004B080BD00F091FD04B080BD026833
:10A31000032903D112F400327FF446AE02680068CC
:10A32000042902D112F002023AD110F400701CBFCD
:10A3300040F60010C0F23D00052918BF002004B00F
:10A3400080BDD0F8F020202903D112F002027FF462
:10A3500000AFD0F8F00010F0006018BF4FF4FA40E2
:10A36000302918BF002004B080BDD1F8E8000B6888
:10A3700010F04042086802D113F0020310D1B2F18C
:10A38000804F35D110F400702CD131E0D1F8E800C5
:10A390000B6810F0404208681ED113F002031BD076
:10A3A000C0F3C10049F20001C0F2D03121FA00F03F
:10A3B00004B080BDB1F5807F02D112F4007211D1DA
:10A3C000D0F8F000B1F5A07F00F002024FF00000DD
:10A3D00008BF900304B080BDB2F1804F08D110F4E3
:10A3E000007005D040F60010C0F23D0004B080BD02
:10A3F000086810F400301CBF41F20020C0F27A005F
:10A40000B2F1004F18BF002004B080BD2DE9F04725
:10A410000446006840F62848C101C4F2024807D546
:10A42000D8F8C010226B21F040411143C8F8C01089
:10A43000C00714D0606BC11E032909D340B10128A5
:10A4400013D104F1080002F0B1FF064640B9606B79
:10A45000D8F8B01021F007010843C8F8B000002672
:10A460002078800705D4354621E001262078800732
:10A47000F9D5A06B6FF0020101EBF001354603291D
:10A480000AD34FEAF000354630B1012830D104F14B
:10A49000080002F08BFF05462F464DB9D8F8B000F2
:10A4A000A16B20F0380008430025C8F8B0003746FB
:10A4B0002078400721D5E06B6FF0020101EBB0116D
:10A4C000032909D34FEAB01030B1012836D104F185
:10A4D000080002F06BFF05462E467DB9D8F8B000A3
:10A4E000E16B20F4E07008430025C8F8B00004E0F8
:10A4F0000125012720784007DDD43E466078C0065C
:10A5000021D5206C6FF0020101EB3061032909D3E2
:10A510004FEA306030B101283CD104F1080002F06C
:10A5200045FF05462F467DB9D8F8B800216C20F0CC
:10A53000E06008430025C8F8B80004E001250126C2
:10A540006078C006DDD437466078800627D5606C19
:10A550006FF0010101EB3041022909D34FEA30408D
:10A5600030B1012810D104F1080002F01FFF0546A8
:10A570002E465DB9D8F8BC00616C20F44030084329
:10A580000025C8F8BC000AE00125012660784006D5
:10A5900009D424E00125012760788006D7D43E46FF
:10A5A000607840061BD5A06C6FF0010101EBB04153
:10A5B000022909D34FEAB04030B1012830D104F16B
:10A5C000080002F0F3FE05462F464DB9D8F8BC004E
:10A5D000A16C20F4402008430025C8F8BC00374691
:10A5E000A078C00721D0E06C002818BFB0F1007F30
:10A5F0000BD12E46D5B9D8F8BC00E16C20F04070E4
:10A6000008430025C8F8BC000FE0B0F1807F2DD1D1
:10A6100004F1080002F0CAFE05462E4635B9EAE705
:10A6200001250127A078C007DDD13E466079C0062C
:10A6300021D5206D002818BFB0F1006F0BD12F4637
:10A64000D5B9D8F8BC00216D20F040600843002542
:10A65000C8F8BC000FE0B0F1806F61D104F10800D0
:10A6600002F0A4FE05462F4635B9EAE7012501268A
:10A670006079C006DDD43746D4E9000140F61C4AB3
:10A68000C4F2024A09050CD5DAF8001021F40041A1
:10A69000CAF80010D4F88010DAF800201143CAF884
:10A6A000001080031BD5606D6FF0020101EB3021BB
:10A6B000032909D34FEA302030B1012833D104F106
:10A6C000080002F073FE05462E464DB9D8F8B400D6
:10A6D000616D20F4E06008430025C8F8B4003E46F0
:10A6E000A078400724D5A06D6FF0020101EB303156
:10A6F000032909D34FEA303030B1012828D104F1C1
:10A70000080002F053FE05462F4695B9D8F8B4006C
:10A71000A16D20F4E04008430025C8F8B40007E02C
:10A7200001250127A8E701250126A0784007DAD4F2
:10A730003746A078800610D5606E052828D80228F4
:10A740002DD029469DB3D4E9000292050AD43CE0FD
:10A7500001250127A0788006EED43946D4E900020D
:10A76000920532D5A26E42F00803082B0AD1A94601
:10A770005DB9D8F8C030002523F008031A43C8F8A3
:10A78000C02022E001254FF00109800120D47AE0A9
:10A7900001250121D4E900029205E3D415E004F17A
:10A7A000080002F003FE0546002D2946CBD1D8F85B
:10A7B000C000616E20F0070008430025C8F8C00003
:10A7C0003946D4E900029205CCD4894680015AD595
:10A7D0004FF60847CFF6FF775AF8070040F0010020
:10A7E0004AF80700FEF7CCFF064600BF5AF80700FC
:10A7F000C00707D1FEF7C4FF801B0228F6D9032546
:10A80000032041E0002D28463ED1D8F8C80010F4BE
:10A81000407017D0A16F884211D0D8F8C800D8F87E
:10A82000C81020F4407041F48031C8F8C810D8F83E
:10A83000C81021F48031C8F8C810C8F8C800C00793
:10A8400040F02A81A06FDAF800104FF6CF7300F4C1
:10A85000407221F47C51C0F2FF0303EA1013B2F5F9
:10A86000407F08BF1943CAF80010D8F8C8106FF32A
:10A870001F3021F44071C8F8C810D8F8C81000255E
:10A880000843C8F8C800484621684A011BD5226E13
:10A890006FF0010303EB3213022B0AD34FEA32139A
:10A8A0003BB1012B2ED1D8F8003043F40033C8F867
:10A8B00000302F4645B9D8F8C030002523F03003CA
:10A8C0001A43C8F8C020074608011FD5E06EC11E14
:10A8D00002290BD3012800F0B880002840F0BF8087
:10A8E000D8F8000040F40030C8F800002E4675B9D2
:10A8F000D8F8B800E16E20F0070008430025C8F83A
:10A90000B80003E0012501270801DFD43E46E078C6
:10A91000C0061FD5206F6FF0020101EBF001022984
:10A920000DD34FEAF000012800F09C80002840F091
:10A93000A380D8F8000040F40030C8F800002F468B
:10A940004DB9D8F8B800216F20F038000843002531
:10A95000C8F8B8003746E07880061FD5606F6FF002
:10A96000020101EBB01102290DD34FEAB01001280A
:10A9700000F08580002840F08C80D8F8000040F47A
:10A980000030C8F800002E464DB9D8F8B800616F05
:10A9900020F4E07008430025C8F8B8003E4620794E
:10A9A000400720D5E06D58B1B0F5007F0BD0B0F571
:10A9B000807F47D1D8F8000040F40030C8F800008C
:10A9C0002F468DB906E004F1080002F0EFFC0546C1
:10A9D0002F464DB9D8F8C000E16D20F4407008430F
:10A9E0000025C8F8C00037462079C0065CBF38464D
:10A9F000BDE8F087E06F30280DD020280FD0102858
:10AA00001EBF01252846BDE8F087D8F8000040F4B5
:10AA10000030C8F800004DB12846BDE8F08704F1C9
:10AA2000080002F0C3FC0546002DF5D1D8F8BC00A3
:10AA3000E16F20F0300008433D46C8F8BC002846CE
:10AA4000BDE8F08701250127CEE704F1080002F0F8
:10AA5000ADFC0546002D2E467FF459AF48E7012591
:10AA6000012654E704F1080002F0A0FC0546002D81
:10AA70002F467FF470AF64E7012501276BE704F1EF
:10AA8000080002F093FC0546002D2E467FF487AFA8
:10AA90007BE70125012682E7FEF772FE064641F2BA
:10AAA00088370325D8F8C80080073FF5CBAEFEF7FE
:10AAB00067FE801BB8424FF00300F3D9E4E60000C4
:10AAC0002DE9F04381B0002800F0CA8042F200086E
:10AAD000C4F202080446D8F800000D4600F00F004A
:10AAE00088420DD2D8F8000020F00F002843C8F8A3
:10AAF0000000D8F8000000F00F00A84240F0B0803D
:10AB0000206840F62047C106C4F202470CD56169AF
:10AB10003A68702303EA1222914205D93A6822F476
:10AB2000E04242EA0121396001070CD521693A6807
:10AB3000702303EA1212914205D93A6822F4E062C6
:10AB400042EA0111396041070AD5E1683A6802F02A
:10AB50007002914204D93A6822F0700211433960C0
:10AB600081070AD5A1683A6802F00F02914204D920
:10AB70003A6822F00F0211433960C00767D120689C
:10AB800081070AD5A1683A6802F00F02914204D207
:10AB90003A6822F00F0211433960D8F8001001F032
:10ABA0000F01A9420CD9D8F8001021F00F01294358
:10ABB000C8F80010D8F8001001F00F01A9424FD1D9
:10ABC00041070AD5E1683A6802F07002914204D266
:10ABD0003A6822F070021143396001070CD52169EF
:10ABE0003A68702303EA1212914205D23A6822F4BD
:10ABF000E06242EA01113960C0060CD5606939682B
:10AC0000702202EA1121884205D2396821F4E0411C
:10AC100041EA0020386000F009F9396841F2C87251
:10AC200001F00F01C0F60102525C40F25001C2F285
:10AC30000001096840F2600320FA02F2C2F2000348
:10AC400008461A6001B0BDE8F043FEF7DDBD60685C
:10AC5000022809D003285BD157F8201C890107D4AA
:10AC6000012001B0BDE8F08357F8201C8903F7D517
:10AC700057F8041C21F00301084347F8040CFEF7C1
:10AC80007FFD61680646032941F288392BD00229ED
:10AC900037D0012910D100BF57F8040C00F018007C
:10ACA00008283FF46CAFFEF76BFD801B48454FF062
:10ACB0000300F1D90DE000BF57F8040C10F0180F95
:10ACC0003FF45DAFFEF75CFD801B48454FF003008D
:10ACD000F2D901B0BDE8F083FEF752FD801B484574
:10ACE0004FF00300F5D857F8040C00F018001828AE
:10ACF000F2D144E7FEF744FD801B48454FF00300C6
:10AD0000E7D857F8040C00F018001028F2D136E705
:10AD100057F8201C012802D18905A1D5A8E7890789
:10AD20009ED5A5E780B500F081F840F62041C4F239
:10AD30000241096841F2C87201F00F01C0F6010238
:10AD4000515C01F01F01C84040F26001C2F20001F5
:10AD5000086080BD80B500F069F840F62041C4F27B
:10AD600002410A6841F2C87302F00F02C0F6010303
:10AD70009A5C02F01F02D04040F26002C2F2000270
:10AD80001060096841F2D872C1F30211C0F60102E5
:10AD9000515C01F01F01C84080BD000080B500F08B
:10ADA00045F840F62041C4F202410A6841F2C873F6
:10ADB00002F00F02C0F601039A5C02F01F02D040BD
:10ADC00040F26002C2F200021060096841F2D872DB
:10ADD000C1F30221C0F60102515C01F01F01C8401D
:10ADE00080BD000080B500F021F840F62041C4F29B
:10ADF00002410A6841F2C87302F00F02C0F6010373
:10AE00009A5C02F01F02D04040F26002C2F20002DF
:10AE10001060096841F2D872C1F30231C0F6010234
:10AE2000515C01F01F01C84080BD000080B540F6B4
:10AE30000041C4F20241C86900F01800082802BFAE
:10AE400040F60010C0F23D0080BDC86910F0180F38
:10AE500034D0C86900F01800102802BF41F2002069
:10AE6000C0F27A0080BDC86900F01800182849F2C5
:10AE70000000C0F2D03063D1D1F828E08A6AC2F372
:10AE8000052C8A6ABCF1000FC2F300128B6BC3F36E
:10AE9000CC0303FB02F200EE102AB8EE400A04BF16
:10AEA000002080BD0EF00303032B14D0012B15D11D
:10AEB0000A68920615D49FED241A1AE008688006E5
:10AEC00049F20000C0F2D03058BF80BD0968C1F31C
:10AED000C101C84080BD9FED1B1A0AE09FED1B1AFF
:10AEE00007E00A68C2F3C102D04001EE100AB8EED2
:10AEF000411A02EE10CA9FED163AB8EE422A486B8C
:10AF000081EE021A6FF35F2002EE100A20EE030AB0
:10AF1000B8EE422A486B30EE020AB7EE002AC0F3C0
:10AF2000462030EE020A013021EE000A01EE100A3E
:10AF3000B8EE411A80EE010ABCEEC00A10EE100A0B
:10AF400080BD00BF0024F44A0024744C0024744ADD
:10AF5000000000392DE9F04381B0002800F038816D
:10AF600040F6004740F6F0490446C4F20247C4F2F6
:10AF70000249F86959F8C81C227800F01808D00670
:10AF800001F0030628D5B8F1080F1AD0B8F1180F50
:10AF900008BF022E15D0E1693868002900F09381BE
:10AFA00040F480703860FEF7EBFB0546386880059A
:10AFB0000BD4FEF7E5FB401B02284FF00300F5D948
:10AFC00048E2E069002800F00381B869216A20F4B2
:10AFD0007C1040EA0140B8612078C00731D0B8F158
:10AFE000100F2AD0B8F1180F08BF032E25D06568BE
:10AFF000B5F5A02F00F0C081B5F5803F00F0CF81FE
:10B00000002D40F0C181386820F480303860386805
:10B0100020F480103860386820F480203860FEF713
:10B02000AFFB0546386880030BD5FEF7A9FB401B34
:10B0300064284FF00300F5D90CE26068002800F0A6
:10B04000C7802078800765D5B8F1000F21D0B8F10E
:10B05000180F08BF012E1CD0E1683868002900F0E5
:10B060006781216920F0180008433860386840F093
:10B0700001003860FEF784FB054600BF3868800792
:10B0800041D4FEF77DFB401B02284FF00300F5D9A9
:10B09000E0E1E068002800F09B80B8F1000F26D1C5
:10B0A0003968206901F01801814220D0396821F007
:10B0B000180108433860FFF7B9FE396A41F2C872D7
:10B0C00001F00F01C0F60102515C40F2600201F094
:10B0D0001F0120FA01F140F25000C2F200000068A6
:10B0E000C2F200021160FEF78FFB002870D1FEF75C
:10B0F00047FB05463868800705D4FEF741FB401B37
:10B100000228F7D97DE03869616920F4FE0040EA41
:10B1100001403861207800075ED42078400774D45D
:10B120002078800600F1A380A56A002D00F01F8220
:10B13000B8F1180F40F0DA8059F8C81C59F8BC0C67
:10B14000012D45D0E26A01F00303934240D1C1F3DF
:10B150000521226B91423BD1626B01466FF35F2167
:10B16000013A914234D1C0F34621A26B013A914297
:10B170002ED1C0F30641E26B013A914228D1C0F3CF
:10B180000660216C0139884222D159F8B80CC0F30D
:10B19000CC00E16C884200F0EA8159F8C80C20F03C
:10B1A000100049F8C80CFEF7EBFA0546FEF7E8FA7E
:10B1B000A842FBD0E06CC00049F8B80C59F8C80CA4
:10B1C00040F0100049F8C80C002001B0BDE8F08341
:10B1D000012001B0BDE8F083A169D9F80000002981
:10B1E0005CD040F08060C9F80000FEF7C9FA05465F
:10B1F000D9F80000000190D4FEF7C2FA401B0228E3
:10B20000F6D9032001B0BDE8F0834FF62446CFF60F
:10B21000FF76B859C00712D1B85940F00100B851B3
:10B22000FEF7AEFA054600BFB859C00707D1FEF7D2
:10B23000A7FA401B02284FF00300F5D90AE1A068E5
:10B24000002800F0BF80052800F0E180012800F010
:10B25000EA80D9F80010852840F0108141F0040000
:10B26000C9F80000D9F8000040F08000D9E0616A18
:10B27000386800296ED040F480503860FEF780FABC
:10B28000054600BF386880043FF54EAFFEF778FAF8
:10B29000401B02284FF00300F4D9DBE020F080606F
:10B2A000C9F80000FEF76CFA054600BFD9F80000A7
:10B2B00000017FF532AFFEF763FA401B02284FF022
:10B2C0000300F3D9C6E020F480703860FEF758FA26
:10B2D000054600BF386880057FF57EAEFEF750FA60
:10B2E000401B02284FF00300F4D9B3E0386820F087
:10B2F00080703860FEF744FA022D05460CD100BF7D
:10B300003868800140F1C980FEF73AFA401B0228F4
:10B310004FF00300F4D99DE03868800140F11E81B0
:10B32000FEF72EFA401B02284FF00300F4D991E0FB
:10B3300020F001003860FEF723FA054638688007E0
:10B340007FF5E8AEFEF71CFA401B02284FF0030021
:10B35000F4D97FE020F480503860FEF711FA0546FA
:10B36000386880047FF5E0AEFEF70AFA401B022839
:10B370004FF00300F4D96DE0386840F48020386065
:10B38000386820F4801009E03868B5F5A81F64D14A
:10B3900040F480203860386840F4801038603868A5
:10B3A00040F480303860FEF7EBF9054638688003DA
:10B3B0003FF547AEFEF7E4F9401B64284FF0030069
:10B3C000F4D947E0D9F8000020F00100C9F80000E6
:10B3D000D9F8000020F08000C9F80000D9F800007A
:10B3E00020F00400C9F80000FEF7CAF9054641F252
:10B3F000883600BFD9F8000080077FF591AEFEF7D0
:10B40000BFF9401BB0424FF00300F3D922E0D9F856
:10B41000000040F00400C9F80000D9F8000020F056
:10B420008000C9F80000D9F8000040F00100C9F818
:10B430000000FEF7A5F9054641F28836D9F800006C
:10B4400080073FF56DAEFEF79BF9401BB0424FF011
:10B450000300F3D901B0BDE8F08320F480303860F8
:10B46000386820F480203860386820F48010386014
:10B47000FEF786F9002D054698D1D3E521F00100AD
:10B48000C9F80000D9F8000020F00400C9F8000055
:10B49000D9F8000020F08000C9E759F8C80C43F63D
:10B4A000037104F12C0388430ECB084340EA0220C9
:10B4B000A16B49F8C80C4FF47E4202EB4121E26BCC
:10B4C000581E4FF4FE0389B203EB02426FF35F2074
:10B4D000084402F4FE01226C4FF0FE4303EB0262CB
:10B4E000084402F0FE41084449F8BC0C59F8C80C65
:10B4F00020F0100049F8C80CE06CC00049F8B80C06
:10B5000059F8C80C40F0100049F8C80C59F8C80C9C
:10B51000616C20F00C00084349F8C80C59F8C80CBD
:10B52000A16C20F02000084349F8C80C59F8C80C59
:10B5300040F4803049F8C80C386840F080703860BA
:10B54000FEF71EF904463868800110D4FEF718F99A
:10B55000001B02284FF00300F5D97BE759F8C80C0F
:10B560004FF6FC71CFF6F871084049F8C80C00207E
:10B5700001B0BDE8F083000090F88900704700003A
:10B58000F0B581B048B3044621680020E268A062AB
:10B590004FF0010019B90F2A01D901B0F0BDE36BDA
:10B5A000083200EB5313D20803FB02F209B9082A50
:10B5B000F3D843F60000C4F2000081420BD043F2FE
:10B5C0000000C4F20100814205D043F60040C4F2FD
:10B5D0000000814204D1102A02D9012001B0F0BD3F
:10B5E00094F8890030B9002084F88800204600F0E3
:10B5F0006FF82168022084F88900086820F00100B3
:10B6000008608B68A7696268B7F1806F03F4F81C63
:10B610000ED12AB1B2F5800F0AD1A36B73B903E042
:10B62000A36BB3F1805F05D10B6843F480530B60CB
:10B63000530203D4E3684FF0010E0DE0E368072BDB
:10B6400008D3D1F800E0266D2EF4807535434FF015
:10B65000000E04E04FF0000E0D6825F480750D60BB
:10B66000E569A66A45EA0C05E06B2E4330431843B2
:10B67000A568266963698860606B3A43676A10430E
:10B68000A26B384310433043226A1843E36C1043E3
:10B690001843A26C2843A36D1043E26D1843236E38
:10B6A00010431843C860086DBEF1000F20F0010080
:10B6B000086505D1C868626D20F000401043C8607D
:10B6C00000200121C4F88C0084F8891001B0F0BD7D
:10B6D00070B5AAB00446002502A888212995CDE9B5
:10B6E0002755CDE92555FCF73CFF206843F60001BE
:10B6F000C4F20001884247D043F60041C4F2000181
:10B70000884274D043F20001C4F20101884240F043
:10B71000A3804FF000600025029002A803951D95BC
:10B72000FEF774FE002818BFFDF7FCFB40F68C40C6
:10B73000C4F20240816940F6000441F48051816105
:10B740008169022601F48051019101990168C4F2D6
:10B75000022441F004010160006825A900F0040002
:10B7600001900198012025900520CDE926652990BA
:10B7700020462895FDF72AFF0C20CDE92506042058
:10B78000CDE92755299063E04FF08050029002A840
:10B7900003951E95FEF73AFE002818BFFDF7C2FB81
:10B7A00040F68C40C4F20240016941F480410161DD
:10B7B000016901F4804101910199016841F00201A0
:10B7C0000160006800F00200019001984FF46040B1
:10B7D0002590022026900020CDE927000520299001
:10B7E00040F60000C4F20220A0F5806430E04FF083
:10B7F00000500024029002A803941F94FEF706FE56
:10B80000002818BFFDF78EFB40F68C40C4F20240C2
:10B81000016941F400410161016901F400410191B4
:10B820000199016841F001010160006800F0010028
:10B83000019001980E2025900220CDE926040620D3
:10B84000299040F60000C4F202202894A0F500647C
:10B8500025A92046FDF7BAFE2AB070BD2DE9F043B8
:10B8600081B005689946174604460E46FDF788FFE5
:10B8700094F8891001290CD1002E18BF002F03D194
:10B88000012001B0BDE8F083804694F888000128CB
:10B8900003D1022001B0BDE8F083012084F88800C4
:10B8A0000420002184F88900C4F88C10E666A4F80E
:10B8B0007070A4F872706166A4F86810A4F86A1039
:10B8C000A068A167B0F5C02F2068E16704D10168C6
:10B8D00021F40061016004E0C168022262F3524178
:10B8E000C16041684FF6FF7291433944416001687D
:10B8F00041F0010101606168B1F5800F03D1016879
:10B9000041F400710160E268102A55D343F600014A
:10B91000C4F2000188420CD043F60041C4F2000199
:10B92000884206D043F20001C4F20101884240F08F
:10B930008380B4F87210002900F0B58048F2080541
:10B9400019F101011FD000BF416929420AD0006BE3
:10B95000E16E41F8040BE166B4F872000138A4F816
:10B96000720006E0FDF70CFFA0EB0800484580F0F0
:10B97000AB80B4F87200002800F09580206841691F
:10B980002942E4D1EEE7416929420DD0006BE16E16
:10B9900041F8040BE166B4F872000138A4F87200B3
:10B9A000B4F8720030B97EE0FDF7EAFEB4F8720038
:10B9B000002878D02068E6E7B4F87210072A3DD84E
:10B9C000002970D019F101011FD04169C90706D1C2
:10B9D000FDF7D6FEA0EB080048450CD374E090F8C4
:10B9E0003000E16E0870E06E0130E066B4F872007D
:10B9F0000138A4F87200B4F87200002853D020680F
:10BA00004169C907E4D0EAE720684169C90702D162
:10BA1000FDF7B6FE0BE090F83000E16E0870E06EC6
:10BA20000130E066B4F872000138A4F87200B4F88E
:10BA300072000028E8D136E0B4F8721099B319F119
:10BA400001011CD04069C00706D1FDF799FEA0EBAB
:10BA5000080048450AD337E0288EE16E21F8020B32
:10BA6000E166B4F872000138A4F87200B4F872000C
:10BA7000C8B120684069C007E7D0EDE72068406999
:10BA8000C00702D1FDF77CFE09E0288EE16E21F8A7
:10BA9000020BE166B4F872000138A4F87200B4F841
:10BAA00072000028EAD1204602F072FD012084F8DD
:10BAB0008900002084F88800D4F88C00002818BF82
:10BAC000012001B0BDE8F083204602F061FDD4F80A
:10BAD0008C0040F48070C4F88C00012084F8890048
:10BAE000002084F88800032001B0BDE8F083000046
:10BAF0002DE9F04381B0D0F800901D46174604466A
:10BB00000E46FDF73DFE94F8891001290CD1002E58
:10BB100018BF002F03D1012001B0BDE8F08380469B
:10BB200094F88800012803D1022001B0BDE8F08319
:10BB300001210320002284F8881084F88900C4F8C9
:10BB40008C206666A4F86870A4F86A70E266A4F8AF
:10BB50007020A4F87220A068A267B0F5C02F2068FA
:10BB6000E26704D10168034641F4006204E0034641
:10BB700053F80C2F61F352421A6041684FF6FF727E
:10BB8000914339444160016841F0010101606168FD
:10BB9000B1F5800F03D1016841F400710160E268E2
:10BBA000102A51D343F60001C4F2000188420CD0A0
:10BBB00043F60041C4F20001884206D043F200017E
:10BBC000C4F20101884240F0C380B4F86A10002931
:10BBD00000F01B81691C23D04169890706D4FDF759
:10BBE000CFFDA0EB0800A8420AD33AE1616E51F8FC
:10BBF000042B02626166B4F86A000138A4F86A0096
:10BC0000B4F86A00002800F00081206841698907C3
:10BC1000E5D5EBE7FDF7B4FDB4F86A0090B9F4E0C0
:10BC200041698907F6D5616E51F8042B026261669D
:10BC3000B4F86A000138A4F86A00B4F86A00002871
:10BC400000F0E3802068EBE7B4F86A10072A00F2FE
:10BC50008180002900F0D980691C42D04FF6FE7126
:10BC60008E1E4F1C4169890706D4FDF789FDA0EBA4
:10BC70000800A8422AD3F4E0B4F86A10042909D3D2
:10BC8000E16B402906D9616E51F8042B02623046FF
:10BC9000616616E0B4F86A1002290AD3E16B41B17B
:10BCA000606E30F8021BA9F8201060664FF6FE7037
:10BCB00007E0616E097880F82010606E01306066E0
:10BCC0003846B4F86A100844A4F86A00B4F86A0068
:10BCD000002800F09A80206841698907CCD4C4E725
:10BCE00020684169890702D4FDF74AFD2BE0B4F8CA
:10BCF0006A1004290BD3E16B412908D3616E51F816
:10BD0000042B02626166B4F86A00043819E0B4F8E2
:10BD10006A1002290BD3E16B49B1606E30F8021B47
:10BD2000A9F820106066B4F86A00023809E0616E74
:10BD3000097880F82010606E01306066B4F86A00FF
:10BD40000138A4F86A00B4F86A000028C8D15CE0A1
:10BD5000B4F86A10002958D0691C34D04FF6FE712F
:10BD60004E1C4169890706D4FDF70AFDA0EB0800C7
:10BD7000A8421AD375E0B4F86A10022909D3E16B1E
:10BD800039B1616E51F8042B02624FF6FE706166A4
:10BD900006E0606E30F8021BA9F82010606630469D
:10BDA000B4F86A100844A4F86A00B4F86A0060B3F2
:10BDB000206841698907DED4D6E7FDF7E1FCB4F8D5
:10BDC0006A0000BB21E041698907F6D5B4F86A1022
:10BDD00002290AD3E16B41B1616E51F8042B026272
:10BDE0006166B4F86A00023808E0606E30F8021B41
:10BDF000A9F820106066B4F86A000138A4F86A0057
:10BE0000B4F86A0008B12068DDE7681C14D000BFF0
:10BE100020684069000713D4FDF7B2FCA0EB0800CE
:10BE2000A842F5D3D4F88C0040F02000C4F88C0070
:10BE300006E000BFFDF7A4FC206840690007F9D5C3
:10BE4000204602F0A5FB012084F88900002084F838
:10BE50008800D4F88C00002818BF012001B0BDE88C
:10BE6000F083204602F094FBD4F88C0040F48070FC
:10BE7000C4F88C00012084F88900002084F8880030
:10BE8000032001B0BDE8F083042888BF7047DFE8D5
:10BE900000F00314263738004EF21000CEF20000F6
:10BEA000016821F00401016040F6E440C4F2024060
:10BEB000016821F00C01016070474EF21000CEF2D3
:10BEC00000000168012221F00401016040F6E44015
:10BED000C4F20240016862F38301016070474EF2D0
:10BEE0001000CEF200000168022221F0040101607E
:10BEF00040F6E440C4F20240016862F3830101604D
:10BF000070474EF21000CEF20000016841F00401CB
:10BF100001607047411E0020B0EB116F1CBF012073
:10BF200070474EF21002CEF200025160906011682C
:10BF300041F00301116070474EF21000CEF2000094
:10BF40000068400744BF0420704740F6E440C4F254
:10BF50000240006800F00C01081FB0FA80F04009B0
:10BF6000082908BF02207047704700007047000092
:10BF700070470000704700007047000070470000E5
:10BF8000B0B590F83C20012A4FF0020231D00123D5
:10BF900080F83C3080F83D20026842F6004C53683F
:10BFA000D2F808E0C4F2010C624503D14C6823F4D6
:10BFB000700323434FF68F74CFF6FF540D68234070
:10BFC0002B43B2F1804F536018BF624505D1896899
:10BFD0002EF080031943916005E040F20043C4F263
:10BFE00000039A42F3D00121002280F83D1080F82E
:10BFF0003C201046B0BD000070470000002804BF80
:10C000000120704710B5044690F83D0028B9002083
:10C0100084F83C00204600F05DF8022084F83D00E2
:10C02000206842F6004C0268B0F1804FC4F2010C67
:10C0300018BF604504D1A36822F070021A4305E0DE
:10C0400040F20043C4F200039842F4D0B0F1804FB4
:10C0500018BF604504D1236922F440721A4305E0F9
:10C0600040F20043C4F200039842F4D0A16922F0E8
:10C070008002D4F804E0E368114360450160C362C4
:10C08000C0F828E002D16169CCF83010012141618B
:10C090000269D20703D0026922F001020261002086
:10C0A00084F8481084F83E1084F83F1084F840105B
:10C0B00084F8411084F8421084F8431084F8441046
:10C0C00084F8451084F8461084F8471084F83D1031
:10C0D00010BD000010B582B00068B0F1804F16D0DE
:10C0E00042F60041C4F2010188421CBF02B010BDFB
:10C0F00040F69C40C4F2024081682A2441F4006169
:10C100008160806800F40060019001980DE040F6C5
:10C110009C40C4F2024001682D2441F001010160FD
:10C12000006800F0010000900098204600210022E5
:10C13000FDF7D6FB204602B0BDE81040FDF7C0BBBE
:10C1400090F83D1001291CBF01207047022180F8A2
:10C150003D100168C868B1F1804F40F00100C8602F
:10C160000BD042F60040C4F20100814205D040F2FB
:10C170000040C4F2000081420CD188680722C0F25E
:10C1800001020240062A4FF0000018BFB2F5803FBE
:10C1900000D17047086840F0010008600020704737
:10C1A0000146006841F21113C26822F00102C26028
:10C1B000026A1A4204D00122002081F83D20704713
:10C1C000026A44F244431A42F5D1026822F00102A5
:10C1D00002600122002081F83D20704780B590F870
:10C1E0003C20012A4FF0020200F09C80012380F8DD
:10C1F0003C3080F83D20D0F800C08822DCF80830C0
:10C20000CFF6CE721A40CCF808200B68B3F5005F69
:10C210000FDB3F22C0F21002934217DCB3F1101F74
:10C220002EDB6CD02021C0F210018B4267D0302170
:10C230005CE03F2B1DDD5F2B2ADD602B74D0702B63
:10C2400000F09480B3F5805F65D0D7E05F21C0F245
:10C2500010018B4244DD6021C0F210018B424ED0B0
:10C260007021C0F210018B4218BFB3F5001F46D0F9
:10C27000C4E01F2B3FDC002B41D0102B3FD0BDE092
:10C28000B3F5005F00F08580B3F5801F37D0B5E0CF
:10C29000402B00F09180502B40F0B080D1F804E0AA
:10C2A000C968DCF82030DCF8202022F00102CCF84C
:10C2B0002020DCF8182022F0F00242EA011123F0DD
:10C2C0000A0242EA0E02CCF81810CCF82020DCF862
:10C2D00008104FF68872CFF6CF721140573118E030
:10C2E0004021C0F210018B4209D05021C0F2100150
:10C2F0008B4204D082E0202B01D0302B7ED1DCF8A1
:10C3000008104FF68872CFF6CF721140194341F0F2
:10C310000701CCF808100022012180F83D1000210F
:10C3200080F83C10104680BDD1F804E0C968DCF804
:10C330002030DCF8202022F01002CCF82020DCF89D
:10C34000182022F4704242EA013123F0A00242EAAE
:10C350000E12CCF81810CCF82020DCF808104FF69C
:10C360008872CFF6CF7211406731D2E7D1E901E38D
:10C37000C968DCF8082043EA0E0343EA012122F4ED
:10C380007F421143CCF80810DCF8081041F0770127
:10C39000BFE7D1E901E3C968DCF8082043EA0E03EE
:10C3A00043EA012122F47F421143CCF80810DCF863
:10C3B000081041F48041ACE7D1F804E0C968DCF82A
:10C3C0002030DCF8202022F00102CCF82020DCF81C
:10C3D000182022F0F00242EA011123F00A0242EA98
:10C3E0000E02CCF81810CCF82020DCF808104FF61C
:10C3F0008872CFF6CF72114047318AE701228BE76E
:10C4000070470000F0B581B004460068C76806694F
:10C4100006EA0705A90739D4680751D428076BD461
:10C42000E80600F18680E80740F0A18017F0800759
:10C4300018BF16F4025040F0A880002F18BF16F461
:10C44000807040F0AF80680600F1B680A80600F169
:10C45000BD80E80200F1C480A80200F1CB80680230
:10C4600006D520686FF4800101612046FFF786FD44
:10C4700028025CBF01B0F0BD21686FF400022046C5
:10C480000A6101B0BDE8F040FFF7B6BD6FF00201F0
:10C490000161012121778069800707D02046FFF7DD
:10C4A000AFFF002020776807B8D509E0204600F0EC
:10C4B000ADF8204600F0ACF8002020776807ADD535
:10C4C00020686FF00401016102212177806910F476
:10C4D000407F07D02046FFF793FF002020772807F2
:10C4E0009ED509E0204600F091F8204600F090F833
:10C4F00000202077280793D520686FF0080101619C
:10C5000004212177C069800708D02046FFF778FF13
:10C5100000202077E8067FF586AF0AE0204600F08D
:10C5200075F8204600F074F800202077E8067FF5C3
:10C530007AAF20686FF01001016108212177C0698E
:10C5400010F4407F08D02046FFF75AFF00202077E4
:10C55000E8073FF46BAF0AE0204600F057F82046AA
:10C5600000F056F800202077E8073FF45FAF20681E
:10C570006FF001010161204600F04CF817F08007D0
:10C5800018BF16F402503FF458AF20686FF4025100
:10C5900001612046FFF7EAFC002F18BF16F48070F7
:10C5A0003FF451AF20686FF4807101612046FFF7BE
:10C5B000DBFC68067FF54AAF20686FF0400101613F
:10C5C000204600F057F8A8067FF543AF20686FF0CB
:10C5D000200101612046FFF7CBFCE8027FF53CAF6C
:10C5E00020686FF4801101612046FFF7C5FCA802A6
:10C5F0007FF535AF20686FF4001101612046FFF729
:10C60000B9FC68027FF534AF2BE7000070470000EB
:10C610007047000040F23811C2F20001006809685A
:10C62000884218BF704740F28410C2F20000416A8D
:10C630000131416240F21601C2F200010A88013262
:10C640000A804A8801324A80017859B1017A31B1B1
:10C65000418B47F22F5291429CBF013141830A2006
:10C66000FCF7C6BC018C01310184017A0029EFD1AD
:10C67000F5E700007047000090F88410012904BF1E
:10C68000022070472421C0F88810026811681368DE
:10C6900023F00103136021F0005300214166136071
:10C6A0002022C0F8882080F88410084670470000D7
:10C6B000B0B590F88420012A04BF0220B0BD012348
:10C6C000242280F88430C0F888200268D0F864E022
:10C6D000D2F800C01468BEF1000F24F00104146009
:10C6E000946824F0606441EA0401916019D0916873
:10C6F00041F2F87EC1F342619368C0F6010E5B0F10
:10C7000041F600051EF80340C0F60105EB5CE400AD
:10C71000B4FBF3F31EF80140695CE500B5FBF1F1F1
:10C7200000E00121A0F868102021A0F86A30C2F8CA
:10C7300000C0C0F88810002180F884100846B0BD01
:10C74000B0B590F88420012A04BF0220B0BD0123B7
:10C75000242280F88430C0F888200268D0F864E091
:10C76000D2F800C01468BEF1000F24F00104146078
:10C77000946824F0604441EA0401916019D0916802
:10C7800041F2F87EC1F342619368C0F6010E5B0F7F
:10C7900041F600051EF80340C0F60105EB5CE4001D
:10C7A000B4FBF3F31EF80140695CE500B5FBF1F161
:10C7B00000E00121A0F868102021A0F86A30C2F83A
:10C7C00000C0C0F88810002180F884100846B0BD71
:10C7D00010B5E0B10446D0F8880028B9002084F8EC
:10C7E0008400204600F028F82420C4F8880020683F
:10C7F000A16A0268002922F0010202601CBF2046E3
:10C8000002F07CF8204602F0A3F9012801D10120B2
:10C8100010BD2168486820F490404860886820F086
:10C820002A008860086840F0010220460A60BDE8DE
:10C83000104002F0D7B80000B0B5AAB004460025F9
:10C8400002A888212995CDE92755CDE92555FBF783
:10C8500088FE206844F20041C4F2000188422CD0D6
:10C8600043F60001C4F20101884257D10020039031
:10C8700001210F9002A80291FDF7C8FD002818BF02
:10C88000FCF750FB40F68C40C4F20240816941F451
:10C8900080418161816901F48041019101990168C0
:10C8A00041F001010160006800F001000190019871
:10C8B0004FF4C0602590072024E00220029002A8D7
:10C8C00003951095FDF7A2FD002818BFFCF72AFB81
:10C8D00040F68C40C4F20240016941F4003101612C
:10C8E000016901F4003101910199016841F00101F0
:10C8F0000160006800F00100019001984FF4C05001
:10C9000025900420022126910021CDE927112990AC
:10C910000020C4F2022025A9FCF758FE2AB0B0BDC1
:10C9200040F28410C2F20000017899B140F2160181
:10C93000C2F200010A88B2F5FA6F4FF0010202D389
:10C94000C2700020088040F20040C4F20220802122
:10C95000FCF710BF002240F20040C4F20220802108
:10C96000FCF708BF40F20044C4F202242046202114
:10C97000FCF7F8FE6420FCF787FCF7E770B582B09F
:10C980000446164641F080020068A1888DF8072011
:10C9900000221D46FCF7EEFEA0690DF10701012201
:10C9A0004FF4FA63FFF7A4F8A069FEF7E5FD01284C
:10C9B000FAD1A06931462A464FF4FA63FFF798F896
:10C9C000A069FEF7D9FD0128FAD12068A1880122CB
:10C9D000FCF7D0FE02B070BD2DE9F04182B0012518
:10C9E0000DF106010DF10703012204468DF80650F2
:10C9F000009500F00BFA9DF807004FF0000800F0DA
:10CA0000F80081278DF807000DF106010DF10703ED
:10CA100020460122C4F81C808DF80670009500F0B5
:10CA20002FFC0A20FCF730FC0DF106010DF1070385
:10CA3000204601228DF80650009500F0E7F99DF898
:10CA400007600A20FCF720FC46F080008DF8070004
:10CA50000DF106010DF10703204601228DF8067045
:10CA6000009500F00DFC6420FCF70EFC266A862180
:10CA7000B0088DF806108DF807000DF106010DF1D4
:10CA8000070320460122009500F0FAFB0520FCF781
:10CA9000FBFBB00187218DF806108DF807000DF122
:10CAA00006010DF1070320460122009500F0E8FB86
:10CAB0000520FCF7E9FB88208DF806000DF1060142
:10CAC0000DF10703204601228DF80780009500F044
:10CAD000D7FB0520FCF7D8FB94F82A0089218DF8B4
:10CAE00006108DF807000DF106010DF10703204631
:10CAF0000122009500F0C4FB0A20FCF7C5FB94F866
:10CB00002B002D2898BF2D20F02828BFF020782852
:10CB10000AD846F267612D38C6F2666150FB01F013
:10CB2000411001EBD07007E04CF6CD411E30CCF641
:10CB3000CC41A0FB0101C80820308B218DF80610E4
:10CB40008DF8070001260DF106010DF107032046BF
:10CB50000122009600F094FB0A20FCF795FB8C2044
:10CB60008DF8060023208DF807000DF106010DF168
:10CB7000070320460122009600F082FB1E208DF85C
:10CB800006000DF106010DF1070320460122009673
:10CB900000F03CF99DF807009E2140F007008DF859
:10CBA00006108DF807000DF106010DF10703204670
:10CBB0000122009600F064FB0A20FCF765FB94F864
:10CBC0002410204600F024FA9F208DF80600FF2054
:10CBD0008DF807000DF106010DF107032046012233
:10CBE000009600F04DFB94F8260094F825104000C4
:10CBF00000EB01109D218DF806108DF807000DF156
:10CC000006010DF1070320460122009600F038FBD3
:10CC100094F8240094F8255006FA00F004F033FD4F
:10CC200041F27872C0F6010202EBC50292ED000BF0
:10CC300053EC102B04F0A0FB04F0F6FC0546262074
:10CC40008DF806000DF106010DF1070320460122C3
:10CC5000009600F0DBF89DF80700112D40F0080168
:10CC6000B8BF00F0F701A6208DF806008DF8071078
:10CC70000DF106010DF1070320460122009600F098
:10CC8000FFFA0A20FCF700FB94F82900A0218DF898
:10CC900006108DF807000DF106010DF1070320467F
:10CCA0000122009600F0ECFA94F82800A1218DF8FA
:10CCB00006108DF807000DF106010DF1070320465F
:10CCC0000122009600F0DCFA40208DF806000DF1FC
:10CCD00006010DF1070320460122009600F096F8A8
:10CCE0009DF80700C02140F03F008DF806108DF838
:10CCF00007000DF106010DF1070320460122009601
:10CD000000F0BEFA0DF106010DF1070320460122E5
:10CD10008DF80660009600F079F89DF807008121F3
:10CD200000F0F80001308DF806108DF807000DF1C5
:10CD300006010DF1070320460122E661009600F08E
:10CD40009FFA0A20E661FCF79FFA42208DF8060060
:10CD50000DF106010DF1070320460122009600F0B7
:10CD600055F89DF807104FF4CA70122908BFC82063
:10CD700002B0BDE8F081000070B582B00D4601261A
:10CD800001A90DF10503012204468DF80460009607
:10CD900000F03CF89DF80500062D27D8DFE805F0E7
:10CDA00004080D12171C210000F0F80000211CE0FF
:10CDB00000F0F8000130012117E000F0F800023027
:10CDC000022112E000F0F800033003210DE000F032
:10CDD000F8000430042108E000F0F80005300521D7
:10CDE00003E000F0F80006300621E16181218DF8B2
:10CDF00006108DF807000DF106010DF1070320461E
:10CE00000122009600F03CFA02B070BD2DE9F0411D
:10CE100004461746A2880068069E0D461146002269
:10CE20009846FCF7A7FCA06929463A464FF4FA63F6
:10CE3000FEF75EFEA069FEF79FFB0128FAD1A0690C
:10CE4000414632464FF4FA63FEF708FDA069FEF74B
:10CE500093FB0128FAD12068A1880122BDE8F041A6
:10CE6000FCF788BC2DE9F04F83B016468846834610
:10CE70001AB140463146FBF752FB01250DF10A017C
:10CE80000DF10B03584601228DF80A500095FFF76B
:10CE9000BDFF9DF80B004FF0810900F0F800013054
:10CEA0008DF80B000DF10A010DF10B03584601221C
:10CEB000CBF81C508DF80A90009500F0E1F9122093
:10CEC0008DF80A000DF10A010DF10B0358460122FD
:10CED0000095FFF79BFF9DF80B00400601D400274B
:10CEE0005DE092208DF80A00FF208DF80B000DF117
:10CEF0000A010DF10B0358460122009500F0C0F91C
:10CF000013208DF80A000DF10A010DF10B035846AC
:10CF100001220095FFF77AFF10209DF80B708DF825
:10CF20000A000DF10A010DF10B035846012200958C
:10CF3000FFF76CFF9DF80B008D218DF80A108DF81E
:10CF40000B000DF10A010DF10B035846012200956B
:10CF500000F096F9B74288BF37464FF00004EFB1B2
:10CF60004FF0010A0DF10A060DF10B054FF0000913
:10CF70005846314601222B468DF80A40CDF800A0D4
:10CF8000FFF744FF9DF80B0008F8090009F10109BB
:10CF9000B945EDD301254FF0810900E000270DF1DF
:10CFA0000A010DF10B03584601228DF80A50009535
:10CFB000FFF72CFF9DF80B00052100F0F80005306D
:10CFC000CBF81C108DF80B000DF10A010DF10B03CD
:10CFD000584601228DF80A90009500F051F9384624
:10CFE00003B0BDE8F08F000010B504468068A18949
:10CFF0000022FCF7BFFB0120FCF746F9A068A189DD
:10D000000122FCF7B7FB6420BDE81040FCF73CB9F7
:10D01000F0B583B00D4604460C29A8BF0C251E2090
:10D02000072DD8BF07258DF80400012601A90DF1B1
:10D030000503204601220096FFF7E8FE9DF80570E3
:10D040000A20FCF721F907F00F0040EA05109E21A5
:10D050008DF806108DF807000DF106010DF107039C
:10D0600020460122009600F00BF90A20FCF70CF98B
:10D0700094F8240094F8255006FA00F004F003FB1D
:10D0800041F27872C0F6010202EBC50292ED000B8C
:10D0900053EC102B04F070F904F0C6FA0546262074
:10D0A0008DF8080002A90DF109032046012200961F
:10D0B000FFF7ACFE9DF80900112D40F00801B8BF44
:10D0C00000F0F701A6208DF80A008DF80B100DF185
:10D0D0000A010DF10B0320460122009600F0D0F862
:10D0E0000A20FCF7D1F803B0F0BD0000B0B582B063
:10D0F000012501A90DF10503012204468DF8045014
:10D100000095FFF783FE9DF80500052100F0F8006B
:10D110000530E16181218DF806108DF807000DF1D1
:10D1200006010DF1070320460122009500F0A8F842
:10D1300002B0B0BD2DE9F04F83B00446C0690DF1D7
:10D140000A0B0DF10B081E4691468A4601900127F5
:10D1500020465946012243468DF80A700097FFF792
:10D1600055FE9DF80B00812500F0F80001308DF888
:10D170000B000DF10A010DF10B0320460122E761BE
:10D180008DF80A50009700F07BF80E208DF80A0009
:10D190000DF10A010DF10B03204601220097FFF764
:10D1A00035FE9DF80B008D218DF80A108DF80B00CF
:10D1B0000DF10A010DF10B0320460122009700F04A
:10D1C0005FF8A2208DF80A000DF10A010DF10B03A2
:10D1D000204601228DF80B90009700F051F8204670
:10D1E000002152464B46FFF7C9FB0DF10A010DF134
:10D1F0000B03204601228DF80A700097FFF706FE08
:10D200009DF80B00032100F0F8000330E1618DF878
:10D210000B000DF10A010DF10B03204601228DF8E0
:10D220000A50009700F02CF8122500BF20465946FE
:10D23000012243468DF80A500097FFF7E7FD9DF85D
:10D240000B00000704D4013E3004EFD100250FE0AD
:10D2500092208DF80A00FF208DF80B0001250DF1BA
:10D260000A010DF10B0320460122009500F008F899
:10D2700001992046FFF780FD284603B0BDE8F08FF6
:10D280002DE9F04104461746A2880068069E0D4627
:10D29000114600229846FCF76DFAA06929463A46E5
:10D2A0004FF4FA63FEF724FCA069FEF765F9012844
:10D2B000FAD1A069414632464FF4FA63FEF718FCF2
:10D2C000A069FEF759F90128FAD12068A188012246
:10D2D000BDE8F041FCF74EBAA22B81610DD0A12B25
:10D2E00019D10021C4F2022101F500630360022379
:10D2F00081602021838081810DE00021C4F2022120
:10D300000160012301F58061838081601023016148
:10D3100008218381818240F607118184012180F8F0
:10D3200026100A210262C7F6FF010022C0E90A1294
:10D330000263704740F20044C4F2022420462021D8
:10D34000FCF710FA6420FBF79FFFF7E782B044F286
:10D35000402540F20044C0F20F05C4F202240195BA
:10D36000019838B920462021FCF7FCF90195019875
:10D370000028F7D001980138019001980028F1D0D9
:10D3800001980138019001980028EBD001980138EC
:10D39000019001980028E5D001980138019001988A
:10D3A0000028E7D1DEE700007047000070B540F6C6
:10D3B0002C46C4F2024656F82C1C044621F080602C
:10D3C00046F82C0CFCF7DCF9054656F82C0C00014D
:10D3D0000BD500BFFCF7D4F9401B022884BF032003
:10D3E00070BD56F82C0C0001F4D4306843F603717C
:10D3F000884394E80E00084340EA0220E168306068
:10D400004FF47E4202EB41212269581E4FF4FE0385
:10D4100089B203EB02426FF35F20084402F4FE017D
:10D4200062694FF0FE4303EB0262084402F0FE41E2
:10D43000084430613068A16920F00C000843306076
:10D440003068E16920F0200008433060606A31688C
:10D450000843306030684FF6F87120F010003060FB
:10D460007069226A884340EAC2007061306840F007
:10D470001000306056F82C0C40F0806046F82C0C00
:10D48000FCF77EF9044600BF56F82C0C000144BF9F
:10D49000002070BDFCF774F9001B032824BF032093
:10D4A00070BDF1E72DE9F04F9FB040F2841AC2F24F
:10D4B000000A9AF807000024002800F0A6834FF025
:10D4C000FE309AF83A10CDF87300CDF877006FF07F
:10D4D00001008DF87B004CF6AB50ADF87000A1F167
:10D4E000A00015288AF807408DF8721000F28D838D
:10D4F000DFE810F00F0625058B038B038B038B03EE
:10D500008B038B038B038B038B038B038B038B03AB
:10D510008B038B038B031600ED010701DD028F03E4
:10D5200040F25420C2F20000C168028A008BCDF89C
:10D53000731011BA00BA090C000CADF87710ADF8F1
:10D5400079000020AB221CA9002300BF5A4053B22F
:10D550005600C3F3C21376B283EA4202C6F3C21383
:10D56000560083EA420273B25600C3F3C21376B286
:10D5700083EA4202C6F3C213560083EA420273B240
:10D580005600C3F3C21376B283EA4202C6F3C21353
:10D59000560083EA420273B25600C3F3C21376B256
:10D5A00083EA4202C6F3C213082883EA420601EB6B
:10D5B00000025578937886EA050675B24FEA46046C
:10D5C000C5F3C21564B285EA4606C4F3C2154FEA34
:10D5D000460485EA460665B24FEA4604C5F3C2151D
:10D5E00064B285EA4606C4F3C2154FEA460485EAEA
:10D5F000460665B24FEA4604C5F3C21564B285EA31
:10D600004606C4F3C2154FEA460485EA460665B2EB
:10D610004FEA4604C5F3C21564B285EA4606C4F370
:10D62000C21585EA460683EA06035EB24FEA430561
:10D63000C6F3C2166DB286EA4303C5F3C2164FEABB
:10D64000430586EA43036EB24FEA4305C6F3C216AA
:10D650006DB286EA4303C5F3C2164FEA430586EA74
:10D6600043036EB24FEA4305C6F3C2166DB286EAB3
:10D670004303C5F3C2164FEA430586EA43036EB27D
:10D680004FEA4305C6F3C2166DB286EA4303C5F3FB
:10D69000C21686EA430300F0FF81D77812797B40F7
:10D6A0005FB25E00C7F3C21776B287EA4303C6F3E0
:10D6B000C2175E0087EA430377B25E00C7F3C21762
:10D6C00076B287EA4303C6F3C2175E0087EA4303D4
:10D6D00077B25E00C7F3C21776B287EA4303C6F398
:10D6E000C2175E0087EA430377B25E00C7F3C21732
:10D6F00076B287EA4303C6F3C217043087EA4303CE
:10D7000024E740F25420C2F20000C07EAB228DF824
:10D71000730000201CA900235A4053B25600C3F3E3
:10D72000C21376B283EA4202C6F3C213560083EAFA
:10D73000420273B25600C3F3C21376B283EA4202C6
:10D74000C6F3C213560083EA420273B25600C3F313
:10D75000C21376B283EA4202C6F3C213560083EACA
:10D76000420273B25600C3F3C21376B283EA420296
:10D77000C6F3C213082883EA420601EB000255787B
:10D78000937886EA050675B24FEA4604C5F3C215DA
:10D7900064B285EA4606C4F3C2154FEA460485EA38
:10D7A000460665B24FEA4604C5F3C21564B285EA7F
:10D7B0004606C4F3C2154FEA460485EA460665B23A
:10D7C0004FEA4604C5F3C21564B285EA4606C4F3BF
:10D7D000C2154FEA460485EA460665B24FEA46049A
:10D7E000C5F3C21564B285EA4606C4F3C21585EADC
:10D7F000460683EA06035EB24FEA4305C6F3C21645
:10D800006DB286EA4303C5F3C2164FEA430586EAC2
:10D8100043036EB24FEA4305C6F3C2166DB286EA01
:10D820004303C5F3C2164FEA430586EA43036EB2CB
:10D830004FEA4305C6F3C2166DB286EA4303C5F349
:10D84000C2164FEA430586EA43036EB24FEA430528
:10D85000C6F3C2166DB286EA4303C5F3C21686EA62
:10D86000430300F01981D77812797B405FB25E00E4
:10D87000C7F3C21776B287EA4303C6F3C2175E0046
:10D8800087EA430377B25E00C7F3C21776B287EA2E
:10D890004303C6F3C2175E0087EA430377B25E0014
:10D8A000C7F3C21776B287EA4303C6F3C2175E0016
:10D8B00087EA430377B25E00C7F3C21776B287EAFE
:10D8C0004303C6F3C217043087EA430324E740F258
:10D8D000AE00C2F200000078AB228DF87300002089
:10D8E0001CA900235A4053B25600C3F3C21376B2A8
:10D8F00083EA4202C6F3C213560083EA420273B2BD
:10D900005600C3F3C21376B283EA4202C6F3C213CF
:10D91000560083EA420273B25600C3F3C21376B2D2
:10D9200083EA4202C6F3C213560083EA420273B28C
:10D930005600C3F3C21376B283EA4202C6F3C2139F
:10D94000082883EA420601EB00025578937886EABC
:10D95000050675B24FEA4604C5F3C21564B285EAFE
:10D960004606C4F3C2154FEA460485EA460665B288
:10D970004FEA4604C5F3C21564B285EA4606C4F30D
:10D98000C2154FEA460485EA460665B24FEA4604E8
:10D99000C5F3C21564B285EA4606C4F3C2154FEA60
:10D9A000460485EA460665B24FEA4604C5F3C21549
:10D9B00064B285EA4606C4F3C21585EA460683EAE0
:10D9C00006035EB24FEA4305C6F3C2166DB286EA9D
:10D9D0004303C5F3C2164FEA430586EA43036EB21A
:10D9E0004FEA4305C6F3C2166DB286EA4303C5F398
:10D9F000C2164FEA430586EA43036EB24FEA430577
:10DA0000C6F3C2166DB286EA4303C5F3C2164FEAE7
:10DA1000430586EA43036EB24FEA4305C6F3C216D6
:10DA20006DB286EA4303C5F3C21686EA430333D0D8
:10DA3000D77812797B405FB25E00C7F3C21776B227
:10DA400087EA4303C6F3C2175E0087EA430377B24F
:10DA50005E00C7F3C21776B287EA4303C6F3C21764
:10DA60005E0087EA430377B25E00C7F3C21776B25F
:10DA700087EA4303C6F3C2175E0087EA430377B21F
:10DA80005E00C7F3C21776B287EA4303C6F3C21734
:10DA9000043087EA430325E7BAF80E008DF87B309F
:10DAA00000900AF128031CA901200C22AAE040F2F0
:10DAB0005420C2F20000417883788DF84B108DF825
:10DAC0004C30B0F80310B0F80530C27BADF84D1003
:10DAD00019BA42F20F26090C8DF84820ADF84960BA
