:020000040800F2
:108000000080002029CA0008D5A20008DDA20008CF
:1080100009A3000811A3000819A30008000000002C
:1080200000000000000000000000000021A3000884
:108030002FA30008000000003DA300084BA3000888
:1080400079CA000879CA000879CA0008000000004F
:1080500079CA000879CA000879CA0008000000003F
:1080600079CA000879CA00080000000079CA00082F
:1080700079CA000857A3000879CA000879CA00081D
:1080800079CA000879CA000865A3000879CA0008FF
:1080900079CA000879CA000879CA000879CA0008B4
:1080A00079CA000879CA000879CA000879CA0008A4
:1080B00079CA000879CA000879CA000879CA000894
:1080C00079CA000879CA000879CA000879CA000884
:1080D0000000000079CA000879CA000879CA0008BF
:1080E00079CA000879CA000875A3000879CA00088F
:1080F00079CA000879CA000879CA0008000000009F
:108100000000000079CA000879CA000879CA00088E
:1081100079CA000879CA000879CA000879CA000833
:1081200079CA000879CA000889A3000879CA00083A
:1081300079CA0008000000000000000079CA0008A9
:1081400079CA0008000000000000000000000000E4
:10815000000000000000000079CA000800000000D4
:10816000000000000000000079CA000879CA000879
:1081700000000000000000000000000000000000FF
:1081800000000000000000000000000000000000EF
:1081900000000000000000000000000000000000DF
:1081A000000000000000000079CA000879CA000839
:1081B00079CA000879CA000879CA000879CA000893
:1081C00079CA000879CA0008000000000000000019
:1081D00000000000000000000000000079CA000854
:1081E00079CA000800000000000000000000000044
:1081F000000000000000000000000000000000007F
:108200000000000079CA000879CA000800000000D8
:108210000000000079CA0008000000000000000013
:1082200000000000000000000000000079CA000803
:1082300079CA0008000000000000000000000000F3
:1082400000000000000000000000000079CA0008E3
:0882500079CA000879CA000890
:1082580010B5054C237833B9044B13B10448AFF378
:1082680000800123237010BDFC00002000000000E6
:108278001439010808B5034B1BB103490348AFF390
:10828800008008BD0000000000010020143901082A
:1082980053B94AB9002908BF00281CBF4FF0FF3165
:1082A8004FF0FF3000F0B0B9ADF1080C6DE904CE25
:1082B80000F006F8DDF804E0DDE9022304B07047B9
:1082C8002DE9F04F099D884604468E46002B4AD179
:1082D8008A4217465FD9B2FA82F64EB1C6F1200338
:1082E80001FA06FEB740B44020FA03F343EA0E0E43
:1082F8004FEA17481FFA87FC230CBEFBF8F108FB6E
:1083080011EE01FB0CF243EA0E439A4207D9FB181F
:1083180001F1FF3002D29A4200F2548101469B1AC1
:10832800A2B2B3FBF8F008FB103300FB0CFC42EAE6
:10833800034294450BD9BA1800F1FF332CBF01242E
:108348000024944502D9002C00F03F81184640EAE9
:108358000140A2EB0C0200211DB1F2400023C5E947
:108368000023BDE8F08F8B4205D90DB1C5E90001A6
:1083780000210846F5E7B3FA83F100294ED14345B9
:10838800C0F01281824240F20F810846002DE8D0E9
:10839800C5E9004EE5E7002A00F0AC80B2FA82F6A3
:1083A800002E40F0BB808B1A4FEA124EBCB201215E
:1083B800020C80B2B3FBFEFC0EFB1C3342EA034303
:1083C80004FB0CF29A420ED9FB180CF1FF382CBFB3
:1083D8004FF001094FF000099A4203D9B9F1000F93
:1083E80000F0EC80C4469B1AB3FBFEF80EFB183372
:1083F80004FB08F440EA034294420BD9BA1808F186
:10840800FF332CBF01200020944202D9002800F03D
:10841800D1809846121B48EA0C409DE7C1F120061E
:108428008B4008FA01F400FA01F922FA06F728FA53
:1084380006F88A401F4320FA06F3380C23431FFA34
:1084480087FC1C0CB8FBF0FE00FB1E8844EA0844BD
:108458000EFB0CF8A0450ED93C190EF1FF3A2CBFC3
:108468004FF0010B4FF0000BA04503D9BBF1000FF3
:1084780000F0B880D646A4EB08041FFA83F8B4FBD2
:10848800F0F300FB134403FB0CFC48EA0444A44546
:108498000ED93C1903F1FF302CBF4FF001084FF003
:1084A8000008A44503D9B8F1000F00F09F800346E7
:1084B80043EA0E40A4EB0C04A0FB02EC64457346AF
:1084C800E04602D307D1F14505D2BEEB02036CEBBF
:1084D800070C0138E0465DB1B9EB030264EB080410
:1084E80004FA06F622FA01F3CC401E43C5E90064FB
:1084F800002136E7B1FBF2FC010C144680B2964627
:1085080041EA08412026904640EA01431046B1FB63
:10851800F2F1A3EB080341EA0C414BE7B740C6F17F
:10852800200301FA06F221FA03F84FEA174E20FA5F
:1085380003F3BCB2B0401343020C190C80B2B8FB71
:10854800FEF90EFB198841EA084109FB04F8884541
:1085580051D9791809F1FF3C2CBF4FF0010A4FF0AF
:10856800000A884502D9BAF1000F31D0A1EB080101
:10857800B1FBFEF909FB04F80EFB19119BB243EAA3
:108588000143434535D2FB1809F1FF312CBF4FF0A9
:10859800010A4FF0000A4345BBD2BAF1000FB8D127
:1085A800A9F102013B44B4E7841A68EB03020120F5
:1085B8009646EBE63A44A8F102082BE7ACF1020C28
:1085C8003B4410E702393B44A9E63A440238BEE688
:1085D800A7EB0808A9F1020C4144B1FBFEF909FB1D
:1085E80004F8C9E7AEF1020E3C4444E7023B3C44C0
:1085F8005EE749468DE7A1EB0801CC46B1FBFEF9E1
:1086080009FB04F8B8E700BF704700BF80B485B025
:1086180000AF0346FB710CE00323FB8103E000BFBE
:10862800FB89013BFB81FB89002BF8D1FB79013BDE
:10863800FB71FB79002BEFD100BF00BF1437BD469B
:108648005DF8047B704780B485B000AF78600B4656
:10865800FB700023FB730023BB7320E0BB7B7A68AD
:1086680013441A78FB7B5340FB7300237B7310E0A1
:1086780097F90F305B005BB297F90F20002A01DAF7
:10868800072200E0002253405BB2FB737B7B01337F
:108698007B737B7B072BEBD9BB7B0133BB73BA7B2B
:1086A800FB78013B9A42D9DBFB7B18461437BD4661
:1086B8005DF8047B704780B586B002AFF860B9609A
:1086C8007A607B80FB685868FB681B890022194622
:1086D80005F04AF8FB6818687A88BB690093134666
:1086E8007A68B96808F020FF00BFFB681B68184665
:1086F80009F062FA0346012BF7D1FB685868FB685A
:108708001B890122194605F02FF800BF1037BD4616
:1087180080BD80B582B000AF78607B68D8687B6820
:108728001B8A0022194605F01FF8012004F060FAA0
:108738007B68D8687B681B8A0122194605F014F803
:10874800C82004F055FA00BF0837BD4680BD0000B8
:1087580080B586B002AF78604FF48C720021104863
:108768000BF09AF8AE233B73AE237B7307F10C0131
:108778004FF0FF3300930223094A7868FFF79BFF05
:10878800074B1B78EA2B03D1054B5B78EA2B01D00A
:10879800EE2301E0024B5B7818461037BD4680BDDA
:1087A8003002002080B584B002AF78604FF48C723C
:1087B80000210F480BF070F84FF0FF33009310239F
:1087C8000B4A0C497868FFF776FF094B1B78EA2BB0
:1087D80005D0074B1B78DE2B01D0002303E00120D6
:1087E800FFF714FF012318460837BD4680BD00BFB8
:1087F800300200204803002080B588B002AFF8603E
:10880800B9601346FB710023FB75FB68BA681A60F0
:10881800FB68FA799A751022AE2131480BF03CF8C2
:108828004FF0FF33009310232E4A2D49F868FFF7C5
:1088380042FFF868FFF76DFFF868FFF7B3FF0346DC
:1088480083F00103DBB2002B01D0E02344E04FF4B6
:108858008C72AE2124480BF01FF8234BC0221A70EB
:10886800FB689A7D204B5A70FB68DA7D1E4B9A7024
:10887800FB681A7E1C4BDA70FB685A7E1A4B1A7119
:10888800FB689A7E184B5A71FB68DA7E164B9A7110
:10889800FB681A7F144BDA7110211348FFF7D3FED7
:1088A80003461A46104BDA734FF0FF330093102338
:1088B8000C4A0D49F868FFF7FEFE0520FFF7A6FEF3
:1088C800F868FFF745FF0346EE2B01D1EE23FB7551
:1088D8000120FFF79BFEFB7D18461837BD4680BD7B
:1088E80048030020300200201801002080B588B01D
:1088F80002AFF860B96011461A460B46FB71134681
:10890800BB804FF48C72AA212B480AF0C5FFA02324
:108918003B75FB790133DBB27B7507F114014FF02E
:10892800FF3300930223244AF868FFF7C4FE224B62
:108938001B78EA2B01D0EE2339E00120FFF766FE11
:108948004FF48C72AA211C480AF0A6FF4FF48C72CF
:10895800AA211A480AF0A0FF184BA0221A70002377
:10896800FB750AE0FB7DBA681A44FB7D0133117878
:10897800124AD154FB7D0133FB75FA7DFB799A428B
:10898800F0D3FB799BB201339BB24FF0FF320092D8
:10899800094A0A49F868FFF78EFE0120FFF736FEFC
:1089A800054B1B78EA2B01D0EE2300E00023184684
:1089B8001837BD4680BD00BF3002002018010020D6
:1089C80080B586B002AF786039604FF48C72AA2106
:1089D80031480AF061FFA1233B72AE237B7207F195
:1089E80008014FF0FF33009302232B4A7868FFF702
:1089F80062FE294B1B78A12B03D1274B5B78002BF8
:108A080001D1EE2344E00120FFF700FE224B5B7802
:108A1800BB734FF48C72AA211F480AF03DFF4FF434
:108A28008C72AA211D480AF037FF1C4BA1221A702C
:108A3800BB7B013B1A46AE2119480AF02DFFBB7BD0
:108A48009BB24FF0FF320092134A14497868FFF73F
:108A580032FE0120FFF7DAFD0F4B1B78A12B16D150
:108A6800BB7B023B7B730023FB730AE0FB7B5A1C36
:108A7800FB7B39680B4408498A5C1A70FB7B01331D
:108A8800FB73FA7B7B7B9A42F0D37B7B00E000236D
:108A980018461037BD4680BD30020020180100205E
:108AA8001901002080B400AFBFF34F8F00BF064B01
:108AB800DB6803F4E0620449044B1343CB60BFF363
:108AC8004F8F00BF00BFFDE700ED00E00400FA058E
:108AD80080B588B000AF7860EE23FB770023BB60D9
:108AE80004F01EFB0423FB6002233B610123BB61EE
:108AF8007B687B6107F1080207F10C0311461846F1
:108B080004F0F4FB0346FB7704F030FBFB7F1846C8
:108B18002037BD4680BD000080B58AB000AFF86040
:108B2800B9601346FB8004F0FBFA0023FB8436E0AF
:108B3800FA88FB8CD31ABB8407F110031022FF219B
:108B480018460AF0A9FEFB8CBA68D118BB8C102B0A
:108B580028BF10239BB21A4607F1100318460AF0E3
:108B6800C7FEFA8CFB68134407F11002194602206D
:108B780004F098FA034687F8233097F82330002B3F
:108B880003D004F0F3FA012310E000BF094B1B6A7D
:108B980003F00103012BF9D0FB8C1033FB84FA8C12
:108BA800FB889A42C4D304F0E1FA00231846283718
:108BB800BD4680BD0020024084B080B582B000AFC1
:108BC800786007F1140080E80E0007F114032722EB
:108BD80019467868FFF7A0FF034618460837BD46D0
:108BE800BDE8804004B0704780B584B000AFF8603D
:108BF800384680E80E003B460A221946F868FFF717
:108C08008BFF00BF1037BD4680BD80B487B000AF72
:108C1800F860B9601346FB800023FB820CE0FA8AF7
:108C2800FB6813441946FB8ABA6813440A78D2B21F
:108C38001A70FB8A0133FB82FA8AFB889A42EED3C8
:108C480000BF00BF1C37BD465DF8047B704780B588
:108C580082B000AF78603960272239687868FFF7FA
:108C6800D4FF00BF0837BD4680BD80B582B000AFD5
:108C7800786039600A2239687868FFF7C6FF00BF54
:108C88000837BD4680BD000080B582B000AF3C49C2
:108C98003C48FFF7DCFF012003F0AAFF27213848F2
:108CA80001F024FC0346FB71354B1B78252B05D1BD
:108CB800334B93F82630FA799A425DD0002280210E
:108CC800314804F051FD322003F092FF0122802147
:108CD8002D4804F049FD4FF4FA7003F089FF002293
:108CE8008021294804F040FD322003F081FF012251
:108CF8008021254804F038FD4FF4FA7003F078FF1E
:108D080000228021204804F02FFD322003F070FF5C
:108D1800012280211C4804F027FD4FF4FA7003F06B
:108D280067FF00228021184804F01EFD322003F05E
:108D38005FFF01228021144804F016FD4FF4FA70F9
:108D480003F056FF002280210F4804F00DFD322069
:108D580003F04EFF012280210B4804F005FD4FF47B
:108D6800FA7003F045FF0720FFF7B2FE4FF47A7060
:108D780003F03EFFFFF796FE00BF0837BD4680BDF3
:108D88006004002000E001080004024280B500AF42
:108D98006A496B48FFF769FF684B1B78EA2B11D1CA
:108DA800664B5B780133DAB2644B5A700620FFF7E2
:108DB8008FFE322003F01CFF604B0ECB6048FFF79C
:108DC80013FF11E0322003F013FF0620FFF780FEA7
:108DD8005C4B0ECB5A48FFF707FF322003F008FF21
:108DE80056495748FFF741FF544B5B78092B40F22F
:108DF8009980524B5B780C2B00F294800720FFF788
:108E080067FE00222021504804F0AEFC0022802199
:108E18004D4804F0A9FC4FF4967003F0E9FE0122D6
:108E28002021494804F0A0FC01228021464804F092
:108E38009BFC4FF4967003F0DBFE00222021424891
:108E480004F092FC002280213F4804F08DFC4FF48E
:108E5800967003F0CDFE012220213B4804F084FCEB
:108E680001228021384804F07FFC4FF4967003F00B
:108E7800BFFE00222021344804F076FC0022802125
:108E8800314804F071FC4FF4967003F0B1FE0122F2
:108E980020212D4804F068FC012280212A4804F092
:108EA80063FC4FF4967003F0A3FE002220212648AD
:108EB80004F05AFC00228021234804F055FC4FF4AA
:108EC800967003F095FE012220211F4804F04CFC07
:108ED800012280211C4804F047FC4FF4967003F0EF
:108EE80087FE00222021184804F03EFC0022802141
:108EF800154804F039FC4FF4967003F079FE01220E
:108F08002021114804F030FC012280210E4804F091
:108F18002BFC4FF4967003F06BFE0620FFF7D8FD8C
:108F2800FFF7C0FD4FF4FA7003F062FE0620FFF76A
:108F3800CFFD0A2003F05CFE00BF80BD5800002072
:108F480000C00108640000200004024280B500AFA0
:108F580003F090FD00F0BCF800F0FEFA00F05AF9BA
:108F680000F0AEF900F002FA00F0AAFA00F054FAA4
:108F780000F02EF900F020F962B600BF012220218E
:108F88004A4804F0F1FB01228021484804F0ECFB38
:108F980001224021454804F0E7FB01224FF480718B
:108FA800424804F0E1FB142003F022FE00222021B5
:108FB8003E4804F0D9FB002280213C4804F0D4FB51
:108FC80000224021394804F0CFFB00224FF4807181
:108FD800364804F0C9FBFFF7D9FEFFF755FE00221B
:108FE8002021324804F0C0FB002280212F4804F0E1
:108FF800BBFB002240212D4804F0B6FB00224FF4B1
:1090080080712A4804F0B0FB4FF480720021284890
:109018000AF042FC4FF48072002126480AF03CFC1A
:109028004FF48072002124480AF036FC4FF4807215
:10903800002122480AF030FC01F042FE01F056FE01
:109048001F4808F007FF01222021184804F08CFB74
:1090580001228021154804F087FB01224021134892
:1090680004F082FB01224FF48071104804F07CFB6D
:1090780000221021134804F077FB134B1B680133BF
:10908800114A1360114B1B78002B03D001F060FCD0
:1090980001F012FD01F010FB01F050FE01F004FA9E
:1090A80001F032FB02F010FBE7E700BF00040242C8
:1090B80050080020500700205C0A00205C090020AE
:1090C8004C060020000002422C0700205609002010
:1090D80080B59CB000AF07F120035022002118464C
:1090E8000AF0DAFB07F1080300221A605A609A6056
:1090F800DA601A615A612E4B1B692D4A23F030033E
:1091080013612B4B1B6903F030037B607B6800BF46
:10911800274B5B6903F00803082BF9D109233B624D
:109128004FF480337B624FF08063BB630223BB64E0
:109138000323FB6401233B6512237B650223BB6584
:109148000423FB6502233B660C237B660023BB6676
:109158000023FB6607F12003184604F011FC0346C0
:10916800002B01D000F0D0FA1F23BB600323FB6063
:1091780000233B6100237B610023BB610023FB616B
:1091880007F108030321184605F032F80346002BBF
:1091980001D000F0B9FA074B1B6823F03003054AE9
:1091A80043F01003136000BF7037BD4680BD00BF99
:1091B800000802440020024080B500AF04F038FBEC
:1091C8000346002B01D000F09FFA00BF80BD0000CD
:1091D80080B500AF0D4B0E4A1A600C4B07225A603F
:1091E8000A4B40F6FF72DA60084B40F23B129A6075
:1091F800064B00221A61054804F02AFB0346002B9F
:1092080001D000F081FA00BF80BD00BF88040020B3
:109218000030004080B500AF274B284A1A60264B23
:109228004FF480025A60244B00229A60224B072296
:10923800DA60214B00221A611F4B00225A611E4B33
:109248004FF080629A611C4B4FF08042DA611A4BF2
:1092580000221A62184B00225A62174B00229A62A7
:10926800154B0722DA62144B4FF080425A63124BB7
:1092780000229A63104B0022DA630F4B00229A6493
:109288000D4B0022DA640C4B00221A650A4B0022AF
:109298005A65094B00229A65074B0022DA65064B8E
:1092A80000221A66044807F0B7FB0346002B01D0DA
:1092B80000F02AFA00BF80BD9C0400200030014065
:1092C80080B500AF274B284A1A60264B4FF480021E
:1092D8005A60244B00229A60224B0722DA60214B05
:1092E80000221A611F4B00225A611E4B4FF0806208
:1092F8009A611C4B4FF08052DA611A4B00221A62B5
:10930800184B00225A62174B00229A62154B07220B
:10931800DA62144B4FF080425A63124B00229A6370
:10932800104B0022DA630F4B00229A640D4B002287
:10933800DA640C4B00221A650A4B00225A65094B65
:1093480000229A65074B0022DA65064B00221A664E
:10935800044807F061FB0346002B01D000F0D4F964
:1093680000BF80BD2C0500200038004080B500AF4C
:10937800274B284A1A60264B4FF480025A60244B28
:1093880000229A60224B0722DA60214B00221A61E0
:109398001F4B00225A611E4B4FF080629A611C4B92
:1093A8004FF08042DA611A4B00221A62184B0022F1
:1093B8005A62174B00229A62154B0722DA62144B45
:1093C8004FF080425A63124B00229A63104B0022DE
:1093D800DA630F4B00229A640D4B0022DA640C4BBF
:1093E80000221A650A4B00225A65094B00229A6529
:1093F800074B0022DA65064B00221A66044807F07C
:109408000BFB0346002B01D000F07EF900BF80BDA6
:10941800BC050020003C004080B588B000AF07F1D3
:10942800100300221A605A609A60DA603B1D00221D
:109438001A605A609A60204B204A1A601E4B4722D5
:109448005A601D4B00229A601B4B40F2E732DA60EB
:10945800194B00221A61184B00225A61164B002240
:109468009A61154808F09FFC0346002B01D000F0D4
:109478004BF94FF480533B6107F1100319460E482E
:1094880008F0BAFE0346002B01D000F03DF9002396
:109498007B600023BB600023FB603B1D1946064828
:1094A80009F0F2F80346002B01D000F02DF900BFB7
:1094B8002037BD4680BD00BF4C060020002C01406F
:1094C80080B500AF224B234A1A60214B4FF4E1329A
:1094D8005A601F4B00229A601D4B0022DA601C4B19
:1094E80000221A611A4B0C225A61194B00229A6108
:1094F800174B0022DA61164B00221A62144B002225
:109508005A62134B00229A62114809F06BF903461C
:10951800002B01D000F0F8F800210D480AF0F1F80E
:109528000346002B01D000F0EFF8002108480AF0AC
:1095380026F90346002B01D000F0E6F804480AF0AB
:10954800A7F80346002B01D000F0DEF800BF80BD6D
:10955800980600200038014080B58AB000AF07F1B6
:10956800140300221A605A609A60DA601A61604B2C
:10957800D3F88C305E4A43F08003C2F88C305C4BE1
:10958800D3F88C3003F080033B613B69584BD3F828
:109598008C30574A43F00403C2F88C30544BD3F84C
:1095A8008C3003F00403FB60FB68514BD3F88C301C
:1095B8004F4A43F00103C2F88C304D4BD3F88C303E
:1095C80003F00103BB60BB68494BD3F88C30484AB1
:1095D80043F00203C2F88C30454BD3F88C3003F0CB
:1095E80002037B607B68424BD3F88C30404A43F0DF
:1095F8000803C2F88C303E4BD3F88C3003F00803D4
:109608003B603B68002241F292013A4804F0ACF812
:1096180000227121384804F0A7F8002241F2F8111D
:10962800364804F0A1F841F292037B610123BB6143
:109638000023FB6100233B6207F1140319462D4800
:1096480003F034FF71237B610123BB610023FB61BD
:1096580000233B6207F114031946274803F026FF4D
:1096680080237B61264BBB610023FB6107F1140358
:109678001946214803F01AFF41F2F8137B610123D0
:10968800BB610023FB6100233B6207F11403194609
:109698001A4803F00BFF4FF480737B610023BB6112
:1096A8000023FB6107F114031946124803F0FEFE7C
:1096B80004237B61124BBB610023FB6107F1140398
:1096C8001946104803F0F2FE002203210D2003F092
:1096D8006BFB0D2003F082FB00220221122003F015
:1096E80063FB122003F07AFB00BF2837BD4680BD1C
:1096F800000C024400080242000002420004024238
:1097080000001110000C024280B400AF72B600BF16
:1097180000BFFDE790B585B000AF04460846114686
:109728001A462346FB710346BB710B46BB801346A2
:10973800FB70FB79082B02D94FF0FF33EFE0BB79C0
:10974800012B05D0002B11DD023B022B0ED811E0B6
:1097580007F10C03042219464FF4706002F066F812
:10976800FB68002B05D16FF00203D8E06FF004030B
:10977800D5E000BFFB7803F00403002B02D06FF0A4
:109788000503CCE0FB78002B28D0BB79012B02D055
:10979800022B08D022E0FB7803F02103002B1AD11A
:1097A8006FF00503BBE0FB7803F02003002B06D025
:1097B80097F90330002B02DB6FF00503AFE0FB786D
:1097C80003F01003002B08D097F90330002B04DBBB
:1097D8006FF00503A3E000BF00E000BFFB79184667
:1097E80000F0ACF8FB799B000133D80097F90330FF
:1097F80023F00F035AB297F9063013435BB2DBB27A
:10980800194601F0C5FFBB88002B10D1464B1B88B9
:109818005A1C91B2444A1180BB80434B1B884FF6B7
:10982800F072934203D1404B4FF440421A80FB79C7
:109838009B000133DB0003F580631A46BB881B0AD3
:109848009BB2DBB21946104601F0A2FFFB799B00E0
:109858000133DB0003F5A0631A46BB88DBB2194667
:10986800104601F095FFFB799B000133DB0003F5FF
:1098780080730121184601F08BFF00BFFB799B0024
:109888000133DB0003F58073184601F035FF03460A
:10989800002BF3D1FB79012202FA03F31BB2DB435D
:1098A8001AB2224B1B881BB213401BB29AB21F4B31
:1098B8001A80FB7803F00102FB7902FA03F31AB26B
:1098C8001A4B1B881BB213431BB29AB2174B1A8050
:1098D800FB79012202FA03F31BB2DB431AB2144BE1
:1098E8001B881BB213401BB29AB2114B1A80FB792A
:1098F800104A002122F81310FB790F4A0021D15495
:1099080000BFFB799B000133DB0003F54073184669
:1099180001F0F2FE0346002BF3D097F90730184602
:109928001437BD4690BD00BF6E00002030070020F0
:1099380032070020340700204407002080B582B099
:1099480000AF0346FB71FB79082B02D94FF0FF33B8
:1099580055E0FB799B000133DB0003F58073102190
:10996800184601F015FF00BFFB799B000133DB00AF
:1099780003F58073184601F0BFFE0346002BF3D1B0
:10998800FB799B000133DB0003F500731F211846A8
:1099980001F0FEFEFB79012202FA03F31BB2DB435E
:1099A8001AB2194B1B881BB213401BB29AB2164B42
:1099B8001A80FB79012202FA03F31BB2DB431AB2C5
:1099C800124B1B881BB213401BB29AB20F4B1A8062
:1099D800FB790F4A002122F81310FB790D4A002168
:1099E800D15400BFFB799B000133DB0003F54073C2
:1099F800184601F081FE0346002BF3D101231846D7
:109A08000837BD4680BD00BF300700203207002060
:109A1800340700204407002080B58AB000AFB96041
:109A28007B600346FB731346BB8107F11401FB7B84
:109A38000822184602F0A6F8FB7B9B000133DB00E6
:109A480003F580734021184601F0A2FE4FF47A73A3
:109A58003B6207E03B6A013B3B623B6A002B01D15A
:109A6800002365E0FB7B9B000133DB0003F580737B
:109A7800184601F041FE0346002BEBD13A7D7B6886
:109A88001A707B6801337A7D1A707B680233BA7D5D
:109A98001A707B680333FA7D1A703B7E1BB21B0277
:109AA8001AB27B7E1BB213431BB29AB23B6B1A806D
:109AB800BB7E1BB21B021AB2FB7E1BB213431BB246
:109AC800FB83FA8BBB899A4202D8FB8BFB8401E0AB
:109AD800BB89FB84FB8C002B05D0FA8CFB7BB96817
:109AE800184602F04FF8FA8BFB8C9A4208D9FA8B89
:109AF800FB8CD31A9AB2FB7B1146184602F09CF8ED
:109B0800FB7B9B000133DB0003F580734021184683
:109B180001F03EFE00BFFB7B9B000133DB0003F539
:109B28008073184601F0E8FD0346002BF3D1FB8C47
:109B380018462837BD4680BD80B586B000AFB960ED
:109B48007B600346FB731346BB810023FB75002330
:109B5800BB82FB7B082B02D94FF0FF331AE1FB7B5A
:109B68009B000133DB00184601F0C6FD034603F0F5
:109B78000F03023B022B02D96FF004030AE100BF76
:109B8800BB89002B02D16FF00D0303E17B681B78C2
:109B98003B613B691B027A680132127813443B61CE
:109BA8003B691B027A680232127813443B613B69B5
:109BB8001B027A680332127813443B613B69002B1D
:109BC8000ED1FB7B9B000133DB00184601F094FDAE
:109BD800034603F00403042B02D06FF00B03D9E013
:109BE8003B8C002B0ED1FB7B9B000133DB0018461E
:109BF80001F082FD034603F00403042B02D06FF04A
:109C08000A03C7E0FB7B9B000133DB0003F54073CD
:109C1800184601F071FD0346FB75FB7D422B08D009
:109C2800FB7D222B05D0FB7D322B02D06FF0060383
:109C3800B0E0FB7B9B000133DB0003F540630422AB
:109C48007968184601F052FEFB7B9B000133DB006C
:109C580003F580531A463B8C1B0A9BB2DBB21946AC
:109C6800104601F095FDFB7B9B000133DB0003F5FB
:109C780088531A463B8CDBB21946104601F088FD22
:109C8800FB7B9B000133DB0003F5F853184601F01A
:109C980033FD03469B02BB82BA89BB8A9A4201D92B
:109CA800BB8ABB81FB7B184601F080FE0346BB8262
:109CB800FB7B9B000133DB0003F54073184601F082
:109CC8001BFD0346002B02D16FF0030362E0334B08
:109CD8001B881A46FB7B42FA03F303F00103002BAF
:109CE80005D0BA89BB8A9A4201D9002352E0BA89C1
:109CF800BB8A9A4200D9D5E700BFBA89FB7BB9680D
:109D0800184601F0E5FEFB7B9B000133DB0003F501
:109D180080732021184601F03BFD00BFFB7B9B00B0
:109D28000133DB0003F58073184601F0E5FC0346B8
:109D3800002BF3D1FB7B9B000133DB0003F50073A1
:109D4800184601F0D9FC034603F01F03FB75FB7DA1
:109D580003F01003002B0CD0FB7B9B000133DB00CE
:109D680003F500731021184601F012FD00BFBB89EE
:109D780010E0FB7D03F00803002BDBD0FB7B9B008E
:109D88000133DB0003F500730821184601F000FDDC
:109D98006FF00C0318461837BD4680BD3007002009
:109DA80080B584B000AF03463A60FB710B46BB71C7
:109DB8000023FB73FB79082B02D94FF0FF33C0E077
:109DC800BB79072B00F2B98001A252F823F000BF3B
:109DD800F99D00084D9E0008679E0008859E0008B2
:109DE800A39E0008D39E0008F39E0008239F000846
:109DF8003B681B78FB73FB7B012B0DD1FB790122A0
:109E080002FA03F31AB2514B1B881BB213431BB25D
:109E18009AB24E4B1A8093E0FB7B002B0FD1FB7953
:109E2800012202FA03F31BB2DB431AB2474B1B8829
:109E38001BB213401BB29AB2444B1A8080E06FF0F9
:109E480009037EE0414B1B881A46FB7942FA03F36B
:109E5800DBB203F00103DAB23B681A7070E0FB79F9
:109E68009B000133DB0003F5F853184601F044FC6E
:109E780003469B029AB23B681A8061E0FB799B001B
:109E88000133DB0003F5F053184601F035FC0346B7
:109E98009B029AB23B681A8052E03B681B781F2BE2
:109EA80002D96FF009034CE0FB799B000133DB001A
:109EB80003F500731A463B681B7803F01F03DBB2F7
:109EC8001946104601F064FC3AE0FB799B00013327
:109ED800DB0003F50073184601F00EFC034603F09F
:109EE8001F03DAB23B681A702AE03B681B781F2B05
:109EF80002D96FF0090324E0FB799B000133DB00F2
:109F080003F530531A463B681B7803F01F03DBB296
:109F18001946104601F03CFC12E0FB799B00013326
:109F2800DB0003F53053184601F0E6FB034603F067
:109F38001F03DAB23B681A7002E06FF0090300E011
:109F4800012318461037BD4680BD00BF30070020EA
:109F580080B400AF00BFBD465DF8047B70470000C9
:109F680080B5B0B000AF786007F1AC0300221A608A
:109F78005A609A60DA601A6107F12003882200218A
:109F8800184609F089FC7B681B687D4A93425BD1BF
:109F98004FF000624FF00003C7E908230023C7F819
:109FA8008C3007F12003184604F064FC0346002BAC
:109FB80001D0FFF7A9FB734BD3F8A430714A43F4DF
:109FC8008053C2F8A4306F4BD3F8A43003F4805305
:109FD800FB61FB696B4BD3F88C306A4A43F004038E
:109FE800C2F88C30674BD3F88C3003F00403BB61A4
:109FF800BB690123C7F8AC300223C7F8B03000238F
:10A00800C7F8B4300023C7F8B8300523C7F8BC3008
:10A0180007F1AC0319465C4803F048FA0C23C7F86B
:10A02800AC300223C7F8B0300023C7F8B43000239F
:10A03800C7F8B8300423C7F8BC3007F1AC03194699
:10A04800514803F033FA97E07B681B684F4A934204
:10A0580047D14FF080524FF00003C7E9082300238F
:10A06800C7F8903007F12003184604F003FC0346B4
:10A07800002B01D0FFF748FB424BD3F89C30414AF4
:10A0880043F48043C2F89C303E4BD3F89C3003F431
:10A0980080437B617B693B4BD3F88C30394A43F072
:10A0A8000203C2F88C30374BD3F88C3003F002032C
:10A0B8003B613B694FF46043C7F8AC300223C7F8F3
:10A0C800B0300023C7F8B4300023C7F8B8300523F0
:10A0D800C7F8BC3007F1AC0319462D4803F0E6F980
:10A0E8004AE07B681B682B4A934245D14FF00052E7
:10A0F8004FF00003C7E908230023C7F8943007F19D
:10A108002003184604F0B6FB0346002B01D0FFF7E6
:10A11800FBFA1C4BD3F89C301A4A43F40043C2F8AC
:10A128009C30184BD3F89C3003F40043FB60FB6869
:10A13800144BD3F88C30134A43F00103C2F88C3027
:10A14800104BD3F88C3003F00103BB60BB680E23BF
:10A15800C7F8AC300223C7F8B0300023C7F8B430D2
:10A168000023C7F8B8300623C7F8BC3007F1AC03A2
:10A178001946094803F09AF900BFC037BD4680BDAB
:10A1880000300140000C0244000802420038004040
:10A1980000040242003C00400000024280B584B046
:10A1A80000AF78607B681B680E4A934216D10E4B4D
:10A1B800D3F8A4300C4A43F40063C2F8A4300A4B25
:10A1C800D3F8A43003F40063FB60FB68002200218D
:10A1D8002A2002F0E9FD2A2002F000FE00BF103715
:10A1E800BD4680BD002C0140000C024480B5ACB0D7
:10A1F80000AF786007F19C0300221A605A609A60E9
:10A20800DA601A6107F1100388220021184609F064
:10A2180043FB7B681B682A4A93424DD14FF00102E9
:10A228004FF00003C7E9042300237B6407F1100300
:10A23800184604F01FFB0346002B01D0FFF764FA11
:10A24800204BD3F8A4301F4A43F48043C2F8A4300B
:10A258001C4BD3F8A43003F48043FB60FB68194B14
:10A26800D3F88C30174A43F00103C2F88C30154BF1
:10A27800D3F88C3003F00103BB60BB684FF4C063B4
:10A28800C7F89C300223C7F8A0300023C7F8A430D1
:10A298000023C7F8A8300723C7F8AC3007F19C03A0
:10A2A8001946094803F002F9002200213A2002F079
:10A2B8007BFD3A2002F092FD00BFB037BD4680BD5D
:10A2C80000380140000C02440000024280B400AF94
:10A2D80000BFFDE780B500AF00228021074803F0EA
:10A2E80043FA642002F084FC01228021034803F031
:10A2F8003BFA642002F07CFC00BFEDE70004024258
:10A3080080B400AF00BFFDE780B400AF00BFFDE739
:10A3180080B400AF00BFFDE780B400AF00BFBD460A
:10A328005DF8047B704780B400AF00BFBD465DF8A0
:10A33800047B704780B400AF00BFBD465DF8047B66
:10A34800704780B500AF02F033FC00BF80BD80B518
:10A3580000AF042003F03AFA00BF80BD80B500AF1B
:10A36800802003F033FA00BF80BD000080B500AF45
:10A37800024807F0F2FD00BF80BD00BF4C06002078
:10A3880080B500AF024808F07DFA00BF80BD00BF6D
:10A398009806002080B483B000AF304BD3F88830E3
:10A3A8002E4A43F47003C2F888302D4B01221A60FC
:10A3B8002B4B0022DA612A4B00221A62284B1A68BA
:10A3C8002749284B13400B60254B00229A62244BE7
:10A3D8000022DA62224B244A5A63214B00229A63F4
:10A3E8001F4B214ADA631E4B00221A641C4B1B6860
:10A3F8001B4A23F480231360194B00221A65174B5C
:10A408001A4A9A601A4B9B6903F060437B607B6829
:10A41800B3F1604F03D07B68B3F1404F17D1144BB1
:10A42800DB6903F00103002B05D0114B114ADA60F8
:10A438000F4B114ADA600E4BDB690D4A43F00203F9
:10A44800D3610B4BDB690A4A43F00103D36100BFB8
:10A458000C37BD465DF8047B704700BF00ED00E097
:10A46800000C0244E3EAE2FA8002010100800008DD
:10A47800002002403B2A19087F6E5D4C80B400AF73
:10A48800BFF34F8F00BF064BDB6803F4E06204495B
:10A49800044B1343CB60BFF34F8F00BF00BFFDE7F2
:10A4A80000ED00E00400FA0580B500AF034B1B780F
:10A4B800002B01D0FFF7E2FF00BF80BD500C002049
:10A4C80080B400AF074B1B684FF47A7203FB02F2AB
:10A4D800054B1B685B6A13441846BD465DF8047B50
:10A4E800704700BF4C0700204C06002080B485B0A0
:10A4F80000AF78600B46FB700023FB730023BB732F
:10A5080020E0BB7B7A6813441A78FB7B5340FB73CB
:10A5180000237B7310E097F90F305B005BB297F96B
:10A528000F20002A01DA072200E0002253405BB224
:10A53800FB737B7B01337B737B7B072BEBD9BB7B6B
:10A548000133BB73BA7BFB78013B9A42D9DBFB7BB7
:10A5580018461437BD465DF8047B704780B582B055
:10A5680000AF0346FB71464B1B78DBB2002B1BD0B8
:10A5780000222021434803F0F7F8434B1B889BB285
:10A5880001339AB2404B11461980FB795B009A421D
:10A598000ADB012220213B4803F0E6F83A4B00226F
:10A5A8001A80374B00221A70384B1B78DBB2002B0D
:10A5B8001BD000224021334803F0D6F8344B1B88C7
:10A5C8009BB201339BB2324A19461180FA7992B292
:10A5D80093420AD3012240212A4803F0C5F82C4BA4
:10A5E80000221A80294B00221A702A4B1B78DBB2F2
:10A5F800002B1ED000228021224803F0B5F8264BFC
:10A608001B889BB201339AB2234B1146198011461D
:10A61800FA7913469B00134499420ADB01228021F0
:10A62800184803F0A1F81C4B00221A80194B00228D
:10A638001A701A4B1B78DBB2002B1DD000224FF486
:10A648008071104803F090F8154B1B889BB20133BA
:10A658009BB2134A19461180FA7992B293420BD3EE
:10A6680001224FF48071074803F07EF80C4B00225A
:10A678001A800A4B00221A7000BF0837BD4680BDF9
:10A688005C0B002000040242600B00205D0B0020E0
:10A69800620B00205E0B0020640B00205F0B002083
:10A6A800660B00200FB480B400AF00BFBD465DF854
:10A6B800047B04B07047000080B500AF0E4B1B78D8
:10A6C800002B11D00D4B1B889BB2B3F5FA6F05D345
:10A6D8000B4B01221A70094B00221A80012280219B
:10A6E800084803F041F804E000228021054803F0FF
:10A6F8003BF800BF80BD00BF56090020760000204F
:10A708005C0B00200004024280B500AF074B1B8899
:10A718009BB240F2DB52934205D9054803F020F979
:10A72800024B00221A8000BF80BD00BF78000020C5
:10A738008804002080B582B000AF0123FB711C4B58
:10A748001B8A9AB2002302210120FEF7E3FF034689
:10A75800012B05D01748FFF7A5FF0023FB7113E075
:10A768000123FB711448FFF79DFF00237B717B1DBC
:10A778001A4600210120FFF713FB64210F48FFF759
:10A7880091FF0F48FFF78EFF0023BB7108E0BB79EC
:10A798000C4A4FF6FF7122F81310BB790133BB71D5
:10A7A800BB79632BF3D9FB7918460837BD4680BDC2
:10A7B800600400202C390108483901086C39010867
:10A7C8008C390108700B002080B485B000AF0346B7
:10A7D8000A46FB711346BB71274BDB7E002B3CD02E
:10A7E800FB791BB21B021AB2BB791BB213431BB213
:10A7F800BB81BB894FF6FF72934230D0BB89002BD7
:10A808002FD0BB894AF6CD3293422CD00023FB735C
:10A8180009E0FB7B194A32F81330BA899A4224D0EE
:10A82800FB7B0133FB73164B1B78FA7B9A42F0D300
:10A83800134B1B781946114ABB8922F81130104B6B
:10A848001B780133DAB20E4B1A700D4B1B78642B50
:10A858000CD10B4B00221A7008E000BF06E000BFC5
:10A8680004E000BF02E000BF00E000BF1437BD46AF
:10A878005DF8047B704700BF60040020700B002067
:10A88800380C002080B485B000AF03460A46FB713F
:10A898001346BB71294BDB7E002B01D1012347E016
:10A8A800FB791BB21B021AB2BB791BB213431BB252
:10A8B800BB810023FB730BE0FB7B214A32F813308A
:10A8C800BA899A4201D1012332E0FB7B0133FB7341
:10A8D8001C4B1B78FA7B9A42EED30023BB730BE028
:10A8E800BB7B194A32F81330BA899A4201D1002346
:10A8F8001EE0BB7B0133BB73BB7B9AB2134B1B8837
:10A908009A42EDD3114B1B8819460F4ABB8922F88E
:10A9180011300E4B1B8801339AB20C4B1A800B4B2B
:10A928001B88B3F57A7F02D1084B00221A800023D6
:10A9380018461437BD465DF8047B70476004002054
:10A94800700B0020380C0020600C00205C0C0020EC
:10A9580080B586B002AF0023FB73EE237B73002320
:10A968003B734FF44A7000F0C7FE03463B733B7BD2
:10A97800222B40F08680012001F061F803467B819C
:10A988007B89072B7DD9FFF79BFD03463F4A136060
:10A998003F4B00933F4B4FF480723F490120FFF734
:10A9A8003BF803463B813B89002B01D1002369E03A
:10A9B8003B89DBB219463848FFF798FD0346FB711F
:10A9C8003B89013B344AD35CFA799A424BD1334BE9
:10A9D8005B680133314A53602F4B1B78AB2B0BD18B
:10A9E8002D4B5B78CD2B07D12D4B01221A702D4BA7
:10A9F80001221A70002345E0274B9B78264A52789B
:10AA080011461846FFF7E0FE0023BB7308E0BA7B47
:10AA1800BB7B2149895C244AD154BB7B0133BB737E
:10AA2800BB7B9BB23A899A42F1D83B89DAB24FF4A0
:10AA38007A731D491D48FDF759FF03467B737B7BDD
:10AA4800002B0DD1194B1B6A0133184A1362134BA3
:10AA58009B680133114A9360154B01221A7010E06C
:10AA6800E123FB730DE04FF4807200210A4808F0DF
:10AA780013FF4FF48072EE210E4808F00DFFE22319
:10AA8800FB73FB7B18461037BD4680BD540C002075
:10AA98005409002050090020500800203C0C0020D8
:10AAA800680B00205E0B00205C09002000000020DD
:10AAB8005D0B00205007002080B584B002AFBB2397
:10AAC800FB7100237B71354B1B78002B61D0334B16
:10AAD80000221A7032493348FDF772FF03467B7132
:10AAE8007B7919462E48FFF701FD03463B717B79B8
:10AAF800013B2B4AD35C3A799A4248D1284B9B7840
:10AB0800274A527811461846FFF7BCFE0346002B29
:10AB18003DD0254BDB680133234AD360214B5B6A68
:10AB28000133204A5362214B00221A70204B002225
:10AB38001A80204B00221A800023BB7108E0BA79E2
:10AB4800BB791749895C1C4AD154BB790133BB7165
:10AB5800BA797B799A42F2D37B799AB2174B1B88E0
:10AB68000093174B14490120FEF7E6FF154B01220D
:10AB78001A700D4B1B6901330B4A1361FFF7A0FCD8
:10AB88000246114B1B68D31A104A136001E0E223F6
:10AB9800FB71FB7918460837BD4680BD5709002070
:10ABA8005C0A0020000000203C0C0020690B0020FB
:10ABB8006A0B00206C0B002050070020540900206D
:10ABC800500900205F0B0020540C0020580C002076
:10ABD80080B483B000AF0346FB80124B5B8AFA88CF
:10ABE8009A4209D1104B1B889BB201339AB20E4B83
:10ABF8001A800E4B01221A700D4B5B8AFA889A4212
:10AC080009D10C4B1B889BB201339AB2094B1A80AD
:10AC1800094B01221A7000BF0C37BD465DF8047B52
:10AC2800704700BF000000203014002057090020A2
:10AC38002C000020321400205809002080B582B072
:10AC480000AF78607B681A68174B1B689A4227D157
:10AC5800164B1B680133154A1360154B1B889BB2B2
:10AC680001339AB2124B1A80124B1B889BB20133E4
:10AC78009AB2104B1A80104B1B78002B0BD00F4B3D
:10AC88001B8847F22F52934205D80C4B1B8801337F
:10AC98009AB20A4B1A800820FFF760FC00F0CEFC3D
:10ACA80000BF0837BD4680BD4C0600204C07002079
:10ACB8007600002078000020690B00206A0B002035
:10ACC80080B500AF01F05AF801F0E0F8FFF732FD67
:10ACD8000346012B03D1044B01221A7002E0024BF8
:10ACE80000221A7000BF80BD5609002080B500AF51
:10ACF8000B4B9B7E1A460B490B48FDF77DFD03461F
:10AD08001A460A4B1A70064B9B7E1A460849094890
:10AD1800FDF772FD03461A46074B1A7000BF80BD47
:10AD2800600400209C04002000000020341400204F
:10AD3800BC0500202C000020351400202DE9F0412E
:10AD4800AEB008AF6B469846A14B1B7883F0010361
:10AD5800DBB2002B02D0002300F063BC9C4B002226
:10AD68001A700C2387F8953097F895603346013BA5
:10AD7800C7F89030F3B200221C4615464FF0000287
:10AD88004FF00003EB0043EA5473E200F3B20022F1
:10AD9800184611464FF000024FF00003CB0043EA7B
:10ADA8005073C20033460733DB08DB00ADEB030DFD
:10ADB80008AB0033C7F88C30864B9B7887F88B300C
:10ADC80097F895301A46FE21D7F88C0008F064FDF4
:10ADD800D7F88C30AB221A70D7F88C30CD225A7045
:10ADE800D7F88C3097F88B209A7097F88B30B12B66
:10ADF80046D1794B1A7BD7F88C30DA70764B5A7B70
:10AE0800D7F88C301A71744B9A7BD7F88C305A71FA
:10AE1800714BDA7BD7F88C309A716F4B1B8A9BB2D7
:10AE28001B0A9BB2DAB2D7F88C30DA716A4B1B8AEC
:10AE38009BB2DAB2D7F88C301A72D7F88C3000226D
:10AE48005A72654B9A7ED7F88C309A7297F895307B
:10AE58001946D7F88C00FFF749FB03461A46D7F87E
:10AE68008C30DA7297F895309AB25C4B1B88009355
:10AE78005B4BD7F88C100120FEF75EFE0123D0E370
:10AE880097F88B30B22B1ED1564B1A78D7F88C30E6
:10AE9800DA7097F895301946D7F88C00FFF726FB3B
:10AEA80003461A46D7F88C30DA7297F895309AB27A
:10AEB8004A4B1B8800934A4BD7F88C100120FEF7A9
:10AEC8003BFE0123ADE397F88B30B32B1ED1424BE9
:10AED800DA7ED7F88C30DA7097F895301946D7F8BB
:10AEE8008C00FFF703FB03461A46D7F88C30DA725A
:10AEF80097F895309AB2394B1B880093384BD7F89E
:10AF08008C100120FEF718FE01238AE397F88B3096
:10AF1800B42B69D1304BDB7B87F87C300F2387F863
:10AF28007D30222387F87E302B4B5B78DBB287F8A5
:10AF38007F30294B9B7887F88030274BDB7887F860
:10AF48008130254B1B7987F88230234BB3F80530C5
:10AF58009BB21B0A9BB2DBB287F883301E4BB3F857
:10AF680005309BB2DBB287F884301B4B9B681B0E05
:10AF7800DBB287F88530184B9B681B0CDBB287F86F
:10AF88008630154B9B681B0ADBB287F88730124B5B
:10AF98009B68DBB287F888300F4BDB7987F88930FC
:10AFA80097F87D2007F17C0311461846FFF79EFAB3
:10AFB800034687F88A30094B1B8807F17C01009308
:10AFC800074B0F220120FEF7B7FD012329E300BF3D
:10AFD800680B00205008002060040020540900205D
:10AFE800500900207400002097F88B30B52B40F0F2
:10AFF80090809E4BDB78B62B40F08B809B4B1B7967
:10B00800B72B40F08680002387F897300720FDF79C
:10B018005FFD03461A4697F89730134487F8973030
:10B028000A2001F0E5FD924B1C4607F12C0604F1BD
:10B03800200C35462346186859689A68DB680FC59E
:10B04800103410366445F4D133462246106818602F
:10B058009188927999809A71112387F82D3007F198
:10B068002C0327211846FFF741FA034687F8523088
:10B078006C4607F138050FCD0FC495E8070003C4E7
:10B0880022800234130C237007F12C030ECB79486D
:10B09800FDF792FD03461A4697F89730134487F850
:10B0A800973097F89730002B03D1592387F89730BA
:10B0B80002E04F2387F897306D4BDB7B87F87430BD
:10B0C800052387F87530B52387F8763097F89730D9
:10B0D80087F8773097F8752007F1740311461846FA
:10B0E800FFF704FA034687F8783097F875301A4660
:10B0F800614B1B8807F174010093604B0120FEF738
:10B108001BFD97F89730592B01D1FFF7B7F90123A9
:10B1180087E297F88B30C02B40F08B80AB2387F801
:10B128005430CD2387F8553097F88B3087F8563050
:10B13800534B1B7887F85730514B5B7887F858305A
:10B148004F4B9B7887F859304D4BDB7887F85A304E
:10B158004B4B5B681B0EDBB287F85B30484B5B6878
:10B168001B0CDBB287F85C30454B5B681B0ADBB213
:10B1780087F85D30424B5B68DBB287F85E30404B46
:10B188009B681B0EDBB287F85F303D4B9B681B0C3E
:10B19800DBB287F860303A4B9B681B0ADBB287F852
:10B1A8006130374B9B68DBB287F86230344BDB6821
:10B1B8001B0EDBB287F86330314BDB681B0CDBB24C
:10B1C80087F864302E4BDB681B0ADBB287F86530E2
:10B1D8002B4BDB68DBB287F86630294B1B691B0EEB
:10B1E800DBB287F86730264B1B691B0CDBB287F88C
:10B1F8006830234B1B691B0ADBB287F86930204B88
:10B208001B69DBB287F86A3007F154031821184626
:10B21800FFF76CF9034687F86B30174B1B8807F16B
:10B2280054010093154B18220120FEF785FC0123D9
:10B23800F7E197F88B30A02B24D197F895301A4670
:10B248000A49D7F88C0008F053FB97F895309AB262
:10B25800094B1B880093094BD7F88C100120FEF787
:10B268006BFC0A2001F0C4FCFFF708F95008002025
:10B278006004002000E00108540900205009002063
:10B288003C0C0020002387F8963097F88B30A12BD0
:10B2980040F0C68100222021994802F065FA002278
:10B2A8008021974802F060FA00224021944802F079
:10B2B8005BFA00224FF48071914802F055FA9148E8
:10B2C80006F01CFE904B1C463E1D04F1200C354632
:10B2D8002346186859689A68DB680FC51034103619
:10B2E8006445F4D1334622461068186091889279F3
:10B2F80099809A71854BDB783B74844B1B797B74FE
:10B30800824B5B79BB74814B9B79FB747F4BDB79F8
:10B318001BB21B021AB27D4B1B7A1BB213431BB222
:10B328009BB2BB82794B5B7A1BB21B021AB2774B7A
:10B338009B7A1BB213431BB29BB2BB83734B9B7AA2
:10B34800BB773B1D27211846FFF7D0F8034687F83F
:10B358002A30002387F896300720FDF7B9FB03460B
:10B368001A4697F89630134487F896300A2001F069
:10B378003FFC6C4607F110050FCD0FC495E8070098
:10B3880003C422800234130C23703B1D0ECB60488B
:10B39800FDF712FC03461A4697F89630134487F8CF
:10B3A8009630642001F024FC07F12C031946584814
:10B3B800FDF74DFC97F8524007F12C03272118465A
:10B3C800FFF794F803469C4202D04F2387F8963043
:10B3D80097F896304F2B40F0A180D7F88C304F2249
:10B3E800DA7097F895305C1E97F895301946D7F8BB
:10B3F8008C00FFF77BF803461A46D7F88C301A55AD
:10B4080097F895309AB2434B1B880093424BD7F874
:10B418008C100120FEF790FB0720FDF759FB012255
:10B428002021374802F0A0F901228021344802F097
:10B438009BF9C82001F0DCFB00222021304802F0F3
:10B4480093F9002280212E4802F08EF94FF4FA7009
:10B4580001F0CEFB01222021294802F085F90122C2
:10B468008021274802F080F94FF4FA7001F0C0FB00
:10B4780000222021224802F077F90022802120486A
:10B4880002F072F94FF4FA7001F0B2FB01222021A8
:10B498001B4802F069F901228021194802F064F979
:10B4A8004FF4FA7001F0A4FB00222021144802F0A6
:10B4B8005BF900228021124802F056F94FF4FA7025
:10B4C80001F096FB012220210D4802F04DF90122DE
:10B4D80080210B4802F048F94FF4FA7001F088FB1C
:10B4E80000222021064802F03FF90022802104486A
:10B4F80002F03AF94FF4FA7001F07AFB8EE000BFDF
:10B50800000402424C06002060040020500800207D
:10B5180000E001085409002050090020D7F88C30B9
:10B528005922DA7097F895305C1E97F895301946CD
:10B53800D7F88C00FEF7DAFF03461A46D7F88C30A6
:10B548001A5597F895309AB2394B1B880093394BA6
:10B55800D7F88C100120FEF7EFFA01222021364897
:10B5680002F002F901228021334802F0FDF8C820D8
:10B5780001F03EFB002220212F4802F0F5F80122BD
:10B5880080212D4802F0F0F84FF4FA7001F030FBFA
:10B5980001222021284802F0E7F8002280212648CD
:10B5A80002F0E2F84FF4FA7001F022FB00222021A9
:10B5B800214802F0D9F8012280211F4802F0D4F86E
:10B5C8004FF4FA7001F014FB012220211A4802F00E
:10B5D800CBF800228021184802F0C6F84FF4FA7020
:10B5E80001F006FB00222021134802F0BDF80122D9
:10B5F8008021114802F0B8F84FF4FA7001F0F8FA17
:10B60800012220210C4802F0AFF8002280210A48CC
:10B6180002F0AAF84FF4FA7001F0EAFAFEF72EFFEA
:10B628000023C54618469837BD46BDE8F08100BFDF
:10B6380054090020500900200004024280B400AFE1
:10B648001F4B1B8801339AB21D4B1A801C4B1B8859
:10B65800B3F57A7F08D31B4BDB780133DAB2194B89
:10B66800DA70174B00221A80164BDB783B2B08D96F
:10B67800144B9B780133DAB2124B9A70114B0022AB
:10B68800DA70104B9B783B2B08D90E4B5B78013353
:10B69800DAB20C4B5A700B4B00229A70094B5B784C
:10B6A800172B08D9074B1B780133DAB2054B1A70F0
:10B6B800044B00225A7000BFBD465DF8047B7047FA
:10B6C800361400203C0C002080B500AF084B1B78D6
:10B6D80083F00103DBB2002B07D1054B00221A705F
:10B6E8001021044802F058F800E000BF80BD00BFF8
:10B6F800580900200000024280B584B000AF78608D
:10B70800224BDB689847214B5B6998471F4B5B6A64
:10B71800002B03D01D4B9B6A002B14D11B4B1B6ABB
:10B728007A68120CD2B210469847184B1B6A7A688E
:10B73800120AD2B210469847144B1B6A7A68D2B2E2
:10B748001046984711E07B681B0CDBB23B737B68A3
:10B758001B0ADBB27B737B68DBB2BB730B4B9B6A48
:10B7680007F10C02032110469847084BDB699847FC
:10B778000346FB73054B9B699847044B1B69984725
:10B78800FB7B18461037BD4680BD00BFAC000020CB
:10B7980080B584B000AF78600B46FB70224BDB6845
:10B7A8009847214B5B6998477B6843F004037B60AB
:10B7B8001D4B9B6A002B19D11B4B1B6A7A68120C14
:10B7C800D2B210469847184B1B6A7A68120AD2B24E
:10B7D80010469847144B1B6A7A68D2B210469847AD
:10B7E800114B1B6AFA781046984713E07B681B0CCC
:10B7F800DBB23B737B681B0ADBB27B737B68DBB213
:10B80800BB73FB78FB73084B9B6A07F10C0204219E
:10B8180010469847044B9B699847034B1B69984708
:10B8280000BF1037BD4680BDAC00002090B587B082
:10B8380000AFF860B9601346FB802B4BDB68984774
:10B84800294B5B699847284B5B6A002B03D0264B32
:10B858009B6A002B26D1244B1B6AFA68120CD2B2C1
:10B8680010469847204B1B6AFA68120AD2B2104653
:10B8780098471D4B1B6AFA68D2B2104698470023B6
:10B88800FB820AE0184BDB69FA8AB9688C1898477A
:10B8980003462370FB8A0133FB82FA8AFB889A42AB
:10B8A800F0D317E0FB681B0CDBB23B74FB681B0A88
:10B8B800DBB27B74FB68DBB2BB740B4B9B6A07F192
:10B8C8001002032110469847074B5B6AFA88114615
:10B8D800B8689847044B9B699847034B1B6998477E
:10B8E80000BF1C37BD4690BDAC00002080B586B0B7
:10B8F80000AFF860B9601346FB802B4BDB689847B4
:10B90800294B5B699847FB6843F00403FB60264BAF
:10B918009B6A002B26D1244B1B6AFA68120CD2B200
:10B9280010469847204B1B6AFA68120AD2B2104692
:10B9380098471D4B1B6AFA68D2B2104698470023F5
:10B94800FB820AE0184B1B6AFA8AB9680A44127823
:10B9580010469847FB8A0133FB82FA8AFB889A4291
:10B96800F0D317E0FB681B0CDBB23B74FB681B0AC7
:10B97800DBB27B74FB68DBB2BB740B4B9B6A07F1D1
:10B988001002032110469847074B9B6AFA88114614
:10B99800B8689847044B9B699847034B1B699847BD
:10B9A80000BF1837BD4680BDAC00002090B585B0FB
:10B9B80000AF0346FB710023FB810023BB81FB79A9
:10B9C8009B000133DB0003F500531846FFF794FE94
:10B9D8000346BB81BB891B029CB2FB799B000133E8
:10B9E800DB0003F504531846FFF786FE034623449D
:10B9F800BB81BB89002B19D0FB799B000133DB008D
:10BA080003F500531846FFF777FE0346FB81FB89D1
:10BA18001B029CB2FB799B000133DB0003F5045346
:10BA28001846FFF769FE03462344FB81FA89BB8960
:10BA38009A42C4D1FB8918461437BD4690BD90B5CB
:10BA480085B000AF0346FB710023FB810023BB8157
:10BA5800FB799B000133DB0003F518531846FFF709
:10BA68004BFE0346BB81BB891B029CB2FB799B0042
:10BA78000133DB0003F51C531846FFF73DFE034670
:10BA88002344BB81BB89002B19D0FB799B00013370
:10BA9800DB0003F518531846FFF72EFE0346FB811B
:10BAA800FB891B029CB2FB799B000133DB0003F589
:10BAB8001C531846FFF720FE03462344FB81FA89EE
:10BAC800BB899A42C4D1FB8918461437BD4690BD3C
:10BAD80090B585B000AF03463960FB711346BB8053
:10BAE8000023FB810023BB60BB88002B46D0FB7979
:10BAF8009B000133DB0003F510531846FFF7FCFDEC
:10BB080003461B029CB2FB799B000133DB0003F563
:10BB180014531846FFF7F0FD03462344FB81FB89C5
:10BB28001A02FB799B000233DB001344BB60BB881D
:10BB38001A463968B868FFF7D9FEFA89BB881344F2
:10BB4800FB81FB799B000133DB0003F510531A4698
:10BB5800FB891B0A9BB2DBB219461046FFF718FE99
:10BB6800FB799B000133DB0003F514531A46FB896C
:10BB7800DBB219461046FFF70BFE00E000BF143792
:10BB8800BD4690BD90B585B000AF03463960FB71E6
:10BB98001346BB800023FB810023BB60BB88002BBE
:10BBA80046D0FB799B000133DB0003F52053184690
:10BBB800FFF7A2FD03461B029CB2FB799B000133F1
:10BBC800DB0003F524531846FFF796FD034623448C
:10BBD800FB81FB891A02FB799B000333DB001344CA
:10BBE800BB60BB881A463968B868FFF71FFEFA8938
:10BBF800BB881344FB81FB799B000133DB0003F511
:10BC080020531A46FB891B0A9BB2DBB21946104621
:10BC1800FFF7BEFDFB799B000133DB0003F52453DE
:10BC28001A46FB89DBB219461046FFF7B1FD00E062
:10BC380000BF1437BD4690BD90B585B000AF034630
:10BC48000A46FB711346BB800023FB81FB799B00EE
:10BC58000133DB0003F520531846FFF74DFD03467B
:10BC68001B029CB2FB799B000133DB0003F52453D4
:10BC78001846FFF741FD03462344FB81FA89BB8838
:10BC88001344FB81FB799B000133DB0003F5205350
:10BC98001A46FB891B0A9BB2DBB219461046FFF70E
:10BCA80077FDFB799B000133DB0003F524531A462B
:10BCB800FB89DBB219461046FFF76AFD00BF14374F
:10BCC800BD4690BD80B500AF00224FF480510248B8
:10BCD80001F04AFD00BF80BD0004024280B500AFFC
:10BCE80001224FF48051024801F03EFD00BF80BDA3
:10BCF8000004024280B582B000AF78600B467B80BA
:10BD08007A884FF0FF337968034805F087F900BF58
:10BD18000837BD4680BD00BF2C05002080B582B025
:10BD280000AF78600B467B807A884FF0FF337968E4
:10BD3800034804F071FF00BF0837BD4680BD00BF4F
:10BD48002C05002080B582B000AFFB1D01211846EC
:10BD5800FFF7D0FFFB7918460837BD4680BD80B590
:10BD680082B000AF0346FB71FB1D01211846FFF7A7
:10BD7800D5FF00BF0837BD4680BD000080B500AFC5
:10BD88003548FEF78FFC354B1A7B354B1A70334B11
:10BD98005A7B334B5A70314B9A7B314B9A702F4BED
:10BDA800DA7B2F4BDA702D4B1B8A9BB21B0A9BB296
:10BDB800DAB22B4B1A71294B1B8A9BB2DAB2284B89
:10BDC8005A71264B1A7B264B9A71244B5A7B244B6B
:10BDD800DA71224B9A7B224B1A72204BDA7B204B6A
:10BDE8005A721E4B9A7C1F4B1A701C4BDA7C1D4BE7
:10BDF8005A701A4B1A7D1B4B9A70184B5A7D194B67
:10BE0800DA70164BDB8A9AB2174B1A80002280210F
:10BE1800164801F0A9FC052000F0EAFE0122802165
:10BE2800124801F0A1FC642000F0E2FE104911481C
:10BE380000F0B2F81049114800F0D4F81049114840
:10BE480000F0FCF81049104800F08EFA044800F0A1
:10BE5800FBFC00BF80BD00BFD83A01086004002089
:10BE68007C000020500900205409002000080242EC
:10BE7800E5BC0008CDBC000867BD00084DBD000842
:10BE880025BD0008FDBC00089400002080B500AF67
:10BE98000B49002000F0DEF9642000F0A9FE0949F2
:10BEA800012000F0F7F80346B3F1FF3F03D106483D
:10BEB800FEF7F8FB02E00548FEF7F4FB00BF80BD83
:10BEC8007C0000209C000020F03A0108103B01088B
:10BED80080B400AF00BFBD465DF8047B704780B4F6
:10BEE80000AF00BFBD465DF8047B704780B400AF6B
:10BEF80000BFBD465DF8047B704780B400AF00BF4B
:10BF0800BD465DF8047B704780B483B000AF7860AD
:10BF18007B681B78DBB218460C37BD465DF8047B9E
:10BF2800704780B483B000AF78600B46FB707B68C5
:10BF3800FA781A7000BF0C37BD465DF8047B70476D
:10BF480080B400AF00231846BD465DF8047B7047F7
:10BF580080B483B000AF0346FB7100BF0C37BD4609
:10BF68005DF8047B704780B483B000AF78600B46FF
:10BF78007B8000BF0C37BD465DF8047B704780B4FA
:10BF880083B000AF78600B467B8000BF0C37BD469E
:10BF98005DF8047B7047000080B483B000AF786020
:10BFA80039607B68002B02D03B68002B06D10A4B16
:10BFB8000A4A5A61084B0A4A9A6106E0064A7B68AF
:10BFC8005361054A3B68936100BF00BF0C37BD460B
:10BFD8005DF8047B704700BFAC000020F5BE000888
:10BFE80003BF000880B483B000AF7860396000BF39
:10BFF8000F4B1B8803F40073002BF9D07B68002BD0
:10C0080002D03B68002B06D1094B0A4ADA61084B7B
:10C01800094A1A6206E0064A7B68D361044A3B680B
:10C02800136200BF00BF0C37BD465DF8047B704744
:10C03800AC00002049BF000859BF000880B483B095
:10C0480000AF7860396000BF0F4B1B8803F40073A2
:10C05800002BF9D07B68002B02D03B68002B06D15F
:10C06800094B0A4A5A62084B094A9A6206E0064A8C
:10C078007B685362044A3B68936200BF00BF0C3779
:10C08800BD465DF8047B7047AC0000206FBF000818
:10C0980087BF000890B587B000AF03463960FB71D1
:10C0A8000023FB750023FB6000233B61FB790F2B0A
:10C0B80000F2C58001A252F823F000BF05C10008B4
:10C0C8000BC1000837C100082BC1000845C1000892
:10C0D80051C100085FC1000885C10008A7C1000858
:10C0E800EBC10008F1C10008F9C100084DC2000801
:10C0F80001C200080FC200082BC2000800F0E8F8CF
:10C10800A1E03B68002B04D03B68FB60FB68083368
:10C118003B61FB683A691146184600F025F9034669
:10C1280092E03B681B88184600F0AAF98BE000F003
:10C13800DBF903461A463B681A8084E03B681B8893
:10C14800184600F0F6F97EE000F00EFA03461A46AB
:10C158003B681A8077E03B681B881B0A9BB2DBB2FE
:10C1680019464FF49850FFF713FB3B681B88DBB266
:10C1780019464FF4A050FFF70BFB64E04FF49850BA
:10C18800FFF7BAFA03461B029CB24FF4A050FFF720
:10C19800B3FA034623449AB23B681A8053E02C4B07
:10C1A8009A783B681A703B680133294AD2781A702A
:10C1B8003B680233264A12791A703B680333244AD3
:10C1C80052791A703B680433214A92791A703B6895
:10C1D80005331F4AD2791A703B68063300221A7059
:10C1E80031E000F013FA2EE0386800F036FA2AE061
:10C1F800386800F075FA26E03B681B78184600F0AE
:10C20800D9FA034620E000F0E8F90346FB75FB7D08
:10C21800FF2B02D14FF0FF3316E03B68FA7D1A700E
:10C2280011E000F0C4F90346FB75FB7DFF2B02D13A
:10C238004FF0FF3308E03B68FA7D1A7003E04FF0D7
:10C24800FF3301E000BF002318461C37BD4690BDF0
:10C25800AC00002080B582B000AF03463960FB71A6
:10C26800FB79052B2CD801A252F823F08DC20008C7
:10C2780095C200089DC20008ABC20008B9C20008F8
:10C28800C1C20008386800F0DFFA1CE0386800F026
:10C298001BFB18E03B681B78184600F055FB03466B
:10C2A80012E000F073FB03461A463B681A700AE076
:10C2B800386800F073FB06E0386800F090FB02E095
:10C2C8004FF0FF3300E0002318460837BD4680BD15
:10C2D80080B586B000AF3B1D062219464FF41060AA
:10C2E800FFF7A4FA07F11403042219464FF48070EB
:10C2F800FFF79CFA07F11003042219464FF4A060D7
:10C30800FFF794FA07F10C03042219464FF4706002
:10C31800FFF78CFA80210020FFF73AFA0020FFF798
:10C32800EBF93B1D062219464FF41060FFF7DEFAC1
:10C3380007F11403042219464FF48070FFF7D6FA68
:10C3480007F11003042219464FF4A060FFF7CEFA54
:10C3580007F10C03042219464FF47060FFF7C6FA80
:10C3680000BF1837BD4680BD80B584B000AF786087
:10C3780039600023BB73FFF7ABFF7B68002B3BD012
:10C388000023BB730023FB7315E097F90F307A681D
:10C3980013441A78BB7B1344DBB2BB7397F90E3096
:10C3A800102B02DD4FF0FF3366E097F90F30DBB258
:10C3B8000133DBB2FB7397F90F30072BE5DD002360
:10C3C800FB7315E097F90F309B000133DB0003F591
:10C3D800F853184697F90F307A6813441B781946B2
:10C3E800FFF7D6F997F90F30DBB20133DBB2FB73F5
:10C3F80097F90F30072BE5DD3B68002B3BD0002376
:10C40800BB730023FB7315E097F90F303A681344A8
:10C418001A78BB7B1344DBB2BB7397F90E30102B31
:10C4280002DD4FF0FF3327E097F90F30DBB201331D
:10C43800DBB2FB7397F90F30072BE5DD0023FB73A5
:10C4480015E097F90F309B000133DB0003F5F0533B
:10C45800184697F90F303A6813441B781946FFF7C6
:10C4680097F997F90F30DBB20133DBB2FB7397F919
:10C478000F30072BE5DD002318461037BD4680BD79
:10C4880080B584B000AF0346FB80FB88FB73FB8854
:10C498001B0A9BB2BB73FB7B23F00F03DBB219466D
:10C4A8004FF4A850FFF774F90023FB7314E0BA7B2C
:10C4B800FB7B42FA03F303F00103002B09D0FB7B5B
:10C4C8009B000133DB0003F500731F211846FFF7BB
:10C4D8005FF9FB7B0133FB73FB7B072BE7D900BFBD
:10C4E80000BF1037BD4680BD80B582B000AF0023C5
:10C4F800FB710023BB710023BB804FF4A850FFF7EA
:10C50800FBF8034623F00F03FB714FF4B850FFF715
:10C51800F3F80346BB71BB79BB80BB881B029AB298
:10C52800FB799BB21344BB80BB8818460837BD46CD
:10C5380080BD80B584B000AF0346FB80FB88FB73E9
:10C54800FB881B0A9BB2BB73FB7B19464FF4B050A8
:10C55800FFF71EF9BB7B19464FF4C050FFF718F9D7
:10C5680000BF1037BD4680BD80B582B000AF002344
:10C57800FB710023BB710023BB804FF4B050FFF761
:10C58800BBF80346FB714FF4C050FFF7B5F80346FC
:10C59800BB71BB79BB80BB881B029AB2FB799BB28B
:10C5A8001344BB80BB8818460837BD4680BD80B59C
:10C5B80082B000AF0023FB714FF43850FFF79CF8AE
:10C5C800034603F00103002B01D00123FB7197F907
:10C5D800073018460837BD4680BD80B582B000AF29
:10C5E8000023FB714FF43850FFF786F8034603F039
:10C5F8003803302B02D10123FB7101E00023FB71CA
:10C6080097F9073018460837BD4680BD80B582B017
:10C6180000AF4FF43850FFF76FF80346FB71FB7912
:10C6280003F07F03FB71FB7919464FF43850FFF78D
:10C63800AFF84FF43850FFF75FF80346FB71FB790A
:10C6480063F07F03FB71FB7919464FF43850FFF70D
:10C658009FF800BF0837BD4680BD80B584B000AFE5
:10C6680078600023FB737B681B78012B04D1FB7B6C
:10C6780043F04003FB7303E0FB7B23F04003FB73B1
:10C688007B685B78012B04D1FB7B43F03803FB7399
:10C6980019E07B68DB78012B0DD17B689B78012B37
:10C6A80004D1FB7B43F01803FB730CE0FB7B43F0E6
:10C6B8000803FB7307E07B689B78012B03D1FB7BA6
:10C6C80043F01003FB73FB7B19464FF43850FFF718
:10C6D8005FF8FFF79BFF00BF1037BD4680BD000025
:10C6E80080B584B000AF78600023FB734FF43850F6
:10C6F800FFF702F80346FB73FB7B9B11DBB203F0E9
:10C708000103DAB27B681A70FB7B03F03803202B35
:10C7180001D0382B03D17B6801225A7003E07B6873
:10C7280000225A7000BFFB7B03F03803103B102B2C
:10C738008CBF01220022D2B2002A0FD11B4A22FA52
:10C7480003F303F00103002B14BF01230023DBB222
:10C75800002B03D07B6801229A7003E07B680022DB
:10C768009A7000BFFB7B03F03803083B182B8CBF83
:10C7780001220022D2B2002A0FD10D4A22FA03F375
:10C7880003F00103002B14BF01230023DBB2002BAD
:10C7980003D07B680122DA7003E07B680022DA703C
:10C7A80000BF00BF1037BD4680BD00BF01010100BA
:10C7B8000100010180B584B000AF0346FB7100237E
:10C7C800FB734FF43850FEF797FF0346FB73FB7B70
:10C7D80003F04003002B02D14FF0FF3330E0FB7B26
:10C7E80023F03803FB73FB79012B04D1FB7B43F067
:10C7F8003003FB7303E0FB7B43F03803FB73FB7BE5
:10C8080019464FF43850FEF7C3FFFFF7FFFE4FF409
:10C818003850FEF771FF0346FB73FB79012B06D1F5
:10C82800FB7B03F03003002B08D0002308E0FB7BE0
:10C8380003F03803002B01D0002301E04FF0FF3351
:10C8480018461037BD4680BD80B582B000AF78600D
:10C858007B68062219464FF41060FFF747F87B689B
:10C868000E33042219464FF48070FFF73FF87B68B7
:10C878000A33042219464FF4A060FFF737F87B68A3
:10C888000633042219464FF47060FFF72FF87B68CF
:10C898009A7C0B4B1A707B68DA7C094B5A707B6860
:10C8A8001A7D074B9A707B685A7D054BDA707B6856
:10C8B8009A7D044B1A7000BF0837BD4680BD00BF83
:10C8C800381400203C14002080B582B000AF786096
:10C8D8007B68062219464FF41060FEF7A7FF7B68B5
:10C8E8000E33042219464FF48070FEF79FFF7B68D1
:10C8F8000A33042219464FF4A060FEF797FF7B68BD
:10C908000633042219464FF47060FEF78FFF0C4B74
:10C918001A787B689A740A4B5A787B68DA74084BE1
:10C928009A787B681A75064BDA787B685A75054BD6
:10C938001A787B689A7500BF0837BD4680BD00BF6E
:10C94800381400203C14002080B584B000AF0346A2
:10C95800FB710023FB73FB7923F03A03002B02D011
:10C968004FF0FF330EE00020FEF7C6FE0346FB73D0
:10C97800FA7BFB791343FB73FB7B19460020FEF718
:10C9880007FF002318461037BD4680BD80B500AFAD
:10C998000020FEF7B1FE0346184680BD80B582B080
:10C9A80000AF78607B681B7819464FF4D850FEF7C3
:10C9B800EFFE7B685B881B0A9BB2DBB219464FF41B
:10C9C800C850FEF7E5FE7B685B88DBB219464FF47A
:10C9D800D050FEF7DDFE00BF0837BD4680BD90B5DC
:10C9E80083B000AF78604FF4D850FEF785FE034659
:10C9F8001A467B681A704FF4C850FEF77DFE03464E
:10CA08001B029CB24FF4D050FEF776FE0346234437
:10CA18009AB27B685A8000BF0C37BD4690BD0000B3
:10CA2800DFF834D0002103E00C4B5B58435004314D
:10CA38000B480C4B42189A42F6D30B4A02E00023EB
:10CA480042F8043B094B9A42F9D3FDF7A3FC06F0E0
:10CA58002BFFFCF77BFAFEE700800020343C01083E
:10CA680000000020FC000020FC00002044140020EE
:10CA7800FEE7000080B500AF032000F08AF901F05E
:10CA88006FFD02460C4B1B6A03F00F030B49CB5C8E
:10CA980022FA03F30A4A1360042000F0CFF90F20AA
:10CAA80000F010F80346002B01D0012302E0FDF747
:10CAB8004FFA0023184680BD000C0244E43B0108ED
:10CAC8007000002080B584B000AF78600023FB6060
:10CAD800334B1B78002B01D101235CE0314B1B68E1
:10CAE80003F00403042B0CD12F4B1A682C4B1B7832
:10CAF80019464FF47A73B3FBF1F3B2FBF3F3FB601F
:10CB080037E000F0F3F9B860BB68022B23D0BB68AC
:10CB1800022B2DD8BB68002B03D0BB68012B0DD08E
:10CB280026E0214B1A681E4B1B7819464FF4FA531E
:10CB3800B3FBF1F3B2FBF3F3FB601AE0184B1B787D
:10CB48001A464FF47A73B3FBF2F34FF4FA42B2FB8E
:10CB5800F3F3FB600DE0124B1B781A464FF47A731F
:10CB6800B3FBF2F34FF40042B2FBF3F3FB6000E0D7
:10CB780000BFF86800F040F90346002B01D00123FC
:10CB880009E0002279684FF0FF3000F00DF9074AFC
:10CB98007B681360002318461037BD4680BD00BF70
:10CBA800DC00002010E000E070000020D800002029
:10CBB80080B400AF064B1B781A46064B1B6813441B
:10CBC800044A136000BFBD465DF8047B704700BF90
:10CBD800DC0000204014002080B400AF034B1B6829
:10CBE8001846BD465DF8047B704700BF401400201E
:10CBF80080B584B000AF7860FFF7EEFFB8607B685F
:10CC0800FB60FB68B3F1FF3F05D00A4B1B781A465F
:10CC1800FB681344FB6000BFFFF7DEFF0246BB68FA
:10CC2800D31AFA689A42F7D800BF00BF1037BD463A
:10CC380080BD00BFDC00002080B485B000AF786004
:10CC48007B6803F00703FB600C4BDB68BB60BA68CA
:10CC58004FF6FF031340BB60FB681A02BB6813431F
:10CC680043F0BF6343F40033BB60044ABB68D3603E
:10CC780000BF1437BD465DF8047B704700ED00E047
:10CC880080B400AF044BDB681B0A03F007031846A7
:10CC9800BD465DF8047B704700ED00E080B483B0CA
:10CCA80000AF0346FB80B7F90630002B0BDBFB888F
:10CCB80003F01F020749B7F906305B09012000FAA3
:10CCC80002F241F8232000BF0C37BD465DF8047B13
:10CCD800704700BF00E100E080B483B000AF0346B6
:10CCE8003960FB80B7F90630002B0ADB3B68DAB203
:10CCF8000C49B7F906301201D2B20B4483F800236D
:10CD08000AE03B68DAB20849FB8803F00F03043BEA
:10CD18001201D2B20B441A7600BF0C37BD465DF83B
:10CD2800047B704700E100E000ED00E080B489B0CA
:10CD380000AFF860B9607A60FB6803F00703FB6135
:10CD4800FB69C3F10703042B28BF0423BB61FB69FC
:10CD58000433062B02D9FB69033B00E000237B6107
:10CD68004FF0FF32BB6902FA03F3DA43BB681A409B
:10CD78007B699A404FF0FF317B6901FA03F3D9438D
:10CD88007B680B40134318462437BD465DF8047B87
:10CD9800704780B582B000AF78607868FFF74CFFC5
:10CDA80000BF0837BD4680BD80B586B000AF0346DA
:10CDB800B9607A60FB81FFF763FF78617A68B968C8
:10CDC8007869FFF7B3FF0246B7F90E3011461846E7
:10CDD800FFF782FF00BF1837BD4680BD80B582B01F
:10CDE80000AF0346FB80B7F906301846FFF756FF39
:10CDF80000BF0837BD4680BD80B483B000AF7860FF
:10CE08007B68013BB3F1807F01D301230DE00A4A1F
:10CE18007B68013B5360084B00229A60064B1B68F5
:10CE2800054A43F003031360002318460C37BD4638
:10CE38005DF8047B704700BF10E000E080B483B069
:10CE480000AF78607B68042B44D801A252F823F025
:10CE58007BCE000899CE0008BBCE0008DDCE0008C6
:10CE68006DCE00081F4B1B681E4A43F00403136075
:10CE780031E01C4B1B681B4A23F0040313601A4B58
:10CE8800D3F8E430184A23F00C03C2F8E43022E067
:10CE9800144B1B68134A23F004031360124BD3F896
:10CEA800E43023F00C03104A43F00403C2F8E430E2
:10CEB80011E00C4B1B680B4A23F0040313600A4B68
:10CEC800D3F8E43023F00C03074A43F00803C2F810
:10CED800E43000E000BF00BF0C37BD465DF8047BBE
:10CEE800704700BF10E000E0000C024480B483B03B
:10CEF80000AF174B1B6803F00403002B02D0042378
:10CF08007B601EE0134BD3F8E43003F00C033B6066
:10CF18003B68082B0FD03B68082B0FD83B68002BC9
:10CF280003D03B68042B03D008E000237B6008E0B3
:10CF380001237B6005E002237B6002E000237B6025
:10CF480000BF7B6818460C37BD465DF8047B704708
:10CF580010E000E0000C024480B584B000AF7860B7
:10CF6800FFF73AFEF8607B68002B01D101236BE0E4
:10CF78007B6893F85430DBB2022B08D07B68202200
:10CF88009A657B68002283F84C2001235CE07B686B
:10CF98001B685A697B681B6842F004025A617B6807
:10CFA800052283F8542020E0FFF716FE0246FB68AE
:10CFB800D31A052B19D97B689B6D43F010027B6847
:10CFC8009A657B68032283F854207B681B6D03F005
:10CFD8008003002B03D07B685B6F01221A737B6888
:10CFE800002283F84C2001232EE07B681B681B6914
:10CFF80003F40053002BD7D07B681B685A697B6801
:10D008001B6842F002025A617B68042283F85420AC
:10D018007B681B684FF4FE42DA607B68012283F864
:10D0280054207B681B6D03F08003002B07D07B68BE
:10D038005B6F01221A737B681B6800229A647B6805
:10D04800002283F84C20002318461037BD4680BDC7
:10D0580080B483B000AF78607B68002B01D10123D6
:10D0680019E07B6893F85430DBB2022B04D07B685C
:10D0780020229A6501230EE07B68042283F854205D
:10D088007B681B685B697A68126843F4005343F055
:10D0980004035361002318460C37BD465DF8047B32
:10D0A8007047000080B586B000AFF860B9607A605C
:10D0B800194B00225A604FF47A7000F073F8034657
:10D0C800FB75FB7D002B21D1134AFB689360134B42
:10D0D8003B61FB6823F00043022B04D17968B868F0
:10D0E80000F0AEF803E07968B86800F0E5F84FF4AE
:10D0F8007A7000F057F80346FB753B691A68FB68BD
:10D1080023F02043DB431A403B691A60FB7D184635
:10D118001837BD4680BD00BFE0000020282002402F
:10D1280080B483B000AF0023FB710D4B9B6A03F002
:10D138000103002B0DD00A4B0A4A5A60084B0A4AD1
:10D148005A60074B9B6A03F00103002B01D00123AF
:10D15800FB71FB7918460C37BD465DF8047B7047B8
:10D168000020024023016745AB89EFCD80B483B02E
:10D1780000AF0023FB710A4B9B6A094A43F0010385
:10D188009362074B9B6A03F00103002B01D1012333
:10D19800FB71FB7918460C37BD465DF8047B704778
:10D1A8000020024080B586B000AF7860FFF714FD1C
:10D1B8007861204B3B6110E07B68B3F1FF3F0CD0F6
:10D1C800FFF70AFD02467B69D31A7A689A4202D3AE
:10D1D8007B68002B01D1032327E03B691B6803F020
:10D1E8000B03002BE8D1144BFB603B691B6803F46D
:10D1F8001E03BB60BB68002B0CD0104B5A68BB6881
:10D2080013430E4A5360BB6803F41E02FB681A609E
:10D2180001230AE03B691B6803F48033002B03D029
:10D22800FB684FF480321A60002318461837BD4651
:10D2380080BD00BF2020024030200240E0000020D6
:10D2480080B48BB000AF78603960042387F827304A
:10D258007B683B623B68FB61164BBB61BB691B6823
:10D2680043F00202BB691A60EFF310833B613B692C
:10D278007B6172B600BFFB691A683B6A1A603B6A39
:10D2880004333B62FB690433FB6197F82730013BA9
:10D2980087F8273097F82730002BECD17B69FB60A3
:10D2A800FB6883F3108800BF00BF2C37BD465DF8CC
:10D2B800047B70472820024080B485B000AF7860B6
:10D2C8003960094BFB60FB681B6843F00202FB688E
:10D2D8001A603A687B68128892B21A8000BF1437C5
:10D2E800BD465DF8047B70472820024080B586B0B3
:10D2F80000AF78603960334B1B78012B01D10223D2
:10D308005CE0304B01221A702E4B00225A604FF419
:10D318007A70FFF747FF0346FB75FB7D002B49D169
:10D328007B681B68274A9360274BFB607B681B68F8
:10D3380023F0004348F2080293420BD17B685B68F4
:10D34800184600F043F84FF47A70FFF72BFF0346B6
:10D35800FB7525E03B684FF0FF321A607B689B68DD
:10D368003B6115E07B685B681946386900F066F830
:10D378004FF47A70FFF716FF0346FB75FB7D002B11
:10D3880003D03B683A691A600AE03B6901333B61A4
:10D398007B68DA687B689B6813443A699A42E1D3F0
:10D3A800FB681A687B681B6823F00043DB431A405C
:10D3B800FB681A60034B00221A70FB7D1846183769
:10D3C800BD4680BDE00000202820024080B485B022
:10D3D80000AF7860184BFB607B6803F00303032BF6
:10D3E80008D1FB681B6843F4004343F02003FA6844
:10D3F80013601BE07B6803F00103002B09D0FB6876
:10D408001B6823F0004323F0280343F02802FB683D
:10D418001A607B6803F00203002B07D0FB681B68C7
:10D4280043F0004343F02803FA68136000BF143741
:10D43800BD465DF8047B70472820024080B485B063
:10D4480000AF78603960184BFB603B6803F001035C
:10D45800002B11D0FB681B6823F0004323F4FE5314
:10D46800FA681360FB681A687B689B01134343F0F2
:10D478002402FB681A6010E0FB681B6823F4FE5264
:10D48800FB681A60FB681A687B689B01134343F0CA
:10D49800004343F02403FA68136000BF1437BD4605
:10D4A8005DF8047B704700BF2820024080B487B035
:10D4B80000AF7860396000233B6142E13B681A683D
:10D4C80001213B6901FA03F31340FB60FB68002B61
:10D4D80000F034813B685B68022B03D03B685B68D3
:10D4E800122B25D13B69DA087B68083253F82230C1
:10D4F8007B613B6903F007039B000F2202FA03F3E9
:10D50800DB437A6913407B613B681B6903F00F02B8
:10D518003B6903F007039B0002FA03F37A6913439C
:10D528007B613B69DA087B680832796943F8221025
:10D538007B681B687B613B695B00032202FA03F38B
:10D54800DB437A6913407B613B685B6803F0030245
:10D558003B695B0002FA03F37A6913437B617B68DA
:10D568007A691A603B685B68012B0BD03B685B6883
:10D57800022B07D03B685B68112B03D03B685B68C4
:10D58800122B30D17B689B687B613B695B0003226F
:10D5980002FA03F3DB437A6913407B613B68DA687C
:10D5A8003B695B0002FA03F37A6913437B617B688A
:10D5B8007A699A607B685B687B6101223B6902FA41
:10D5C80003F3DB437A6913407B613B685B681B09A3
:10D5D80003F001023B6902FA03F37A6913437B61A2
:10D5E8007B687A695A603B685B6803F00303032B26
:10D5F80009D13B685B6803F00303032B1BD13B682D
:10D608009B68012B17D07B68DB687B613B695B00FB
:10D61800032202FA03F3DB437A6913407B613B6818
:10D628009A683B695B0002FA03F37A6913437B61EA
:10D638007B687A69DA603B685B6803F08053002B8B
:10D648007CD0474A3B699B08183352F823307B61EA
:10D658003B6903F00303DB000F2202FA03F3DB4309
:10D668007A6913407B617B689A0A3E4B13403A699A
:10D6780002F00302D20093407A6913437B61384970
:10D688003B699B0818337A6941F82320344B1B689F
:10D698007B61FB68DB437A6913407B613B685B68AD
:10D6A80003F48013002B03D07A69FB6813437B6172
:10D6B8002B4A7B6913602A4B5B687B61FB68DB4301
:10D6C8007A6913407B613B685B6803F40013002BA5
:10D6D80003D07A69FB6813437B61214A7B695360F5
:10D6E8001F4BD3F884307B61FB68DB437A691340B6
:10D6F8007B613B685B6803F40033002B03D07A69D5
:10D70800FB6813437B61164A7B69C2F88430144B6B
:10D71800D3F880307B61FB68DB437A6913407B6117
:10D728003B685B6803F48033002B03D07A69FB689D
:10D7380013437B610A4A7B69C2F880303B69013335
:10D748003B613B681A683B6922FA03F3002B7FF4BC
:10D75800B5AE00BF00BF1C37BD465DF8047B7047FF
:10D76800002002447F7F2F0080B483B000AF786030
:10D778000B467B8013467B707B78002B03D07A881E
:10D788007B689A6102E07A887B689A6200BF0C37EE
:10D79800BD465DF8047B704780B485B000AF786003
:10D7A8000B467B807B685B69FB607A88FB6813406B
:10D7B8001A04FB68D9437B880B401A437B689A613B
:10D7C80000BF1437BD465DF8047B704780B582B052
:10D7D80000AF0346FB800F4BDA68FB881340002B31
:10D7E80006D00C4AFB88D360FB881846FDF7F0F991
:10D7F800084B1A69FB881340002B06D0054AFB88A2
:10D808001361FB88184600F007F800BF0837BD46CB
:10D8180080BD00BF0020024480B483B000AF03463F
:10D82800FB8000BF0C37BD465DF8047B70470000E5
:10D8380080B400AF054B1B68044A43F00103136032
:10D8480000231846BD465DF8047B7047000403407A
:10D8580080B584B000AF78607B68002B01D10123CC
:10D8680070E0786800F072F87B681B684CF6CC4270
:10D878001A607B681B6845F255521A607B681B6802
:10D888007A6852685A607B681B687A6892689A60FE
:10D89800FFF7A2F9F8600FE0FFF79EF90246FB6870
:10D8A800D31A212B08D97B681B68DB6803F00203B5
:10D8B800002B01D0032345E07B681B68DB6803F07D
:10D8C8000203002BE8D17B681B69002B05D17B681C
:10D8D8001B684FF480425A6106E07B681A697B68CE
:10D8E8001B6842F440425A61FFF776F9F8600FE08E
:10D8F800FFF772F90246FB68D31A212B08D97B6817
:10D908001B68DB6803F00F03002B01D0032319E029
:10D918007B681B68DB6803F00F03002BE8D17B688A
:10D928001B681A697B68DB689A4205D07B681B68AC
:10D938007A68D2681A6104E07B681B684AF6AA22F2
:10D948001A60002318461037BD4680BD80B483B0E6
:10D9580000AF786000BF0C37BD465DF8047B7047A8
:10D9680080B483B000AF78607B681B684AF6AA224F
:10D978001A60002318460C37BD465DF8047B7047D3
:10D9880080B588B000AF78607B68002B02D1012396
:10D9980000F028BC944BDB6903F01803FB61924B41
:10D9A8009B6A03F00303BB617B681B6803F01003E9
:10D9B800002B5BD0FB69082B05D0FB69182B14D111
:10D9C800BB69022B11D17B68DB69002B02D10123D3
:10D9D80000F008BC844B9B6923F47C127B681B6AAB
:10D9E8001B04814913438B6140E07B68DB69002B92
:10D9F80023D07D4B1B687C4A43F480731360FFF788
:10DA0800EBF8786108E0FFF7E7F802467B69D31A7C
:10DA1800022B01D90323E5E3734B1B6803F400735E
:10DA2800002BF0D0704B9B6923F47C127B681B6A37
:10DA38001B046D4913438B6118E06B4B1B686A4AE2
:10DA480023F480731360FFF7C7F8786108E0FFF7E5
:10DA5800C3F802467B69D31A022B01D90323C1E319
:10DA6800614B1B6803F40073002BF0D17B681B68C3
:10DA780003F00103002B00F0A080FB69102B05D0F8
:10DA8800FB69182B09D1BB69032B06D17B685B683E
:10DA9800002B40F092800123A4E37B685B68B3F518
:10DAA800803F06D1504B1B684F4A43F480331360C4
:10DAB80058E07B685B68002B12D14B4B1B684A4AC5
:10DAC80023F480331360484B1B68474A23F48013C0
